{
  "_format": "hh-sol-artifact-1",
  "contractName": "PuzzleNFT",
  "sourceName": "contracts/PuzzleNFT.sol",
  "abi": [
    {
      "inputs": [],
      "stateMutability": "nonpayable",
      "type": "constructor"
    },
    {
      "anonymous": false,
      "inputs": [
        {
          "indexed": true,
          "internalType": "address",
          "name": "account",
          "type": "address"
        },
        {
          "indexed": true,
          "internalType": "address",
          "name": "operator",
          "type": "address"
        },
        {
          "indexed": false,
          "internalType": "bool",
          "name": "approved",
          "type": "bool"
        }
      ],
      "name": "ApprovalForAll",
      "type": "event"
    },
    {
      "anonymous": false,
      "inputs": [
        {
          "indexed": true,
          "internalType": "address",
          "name": "previousOwner",
          "type": "address"
        },
        {
          "indexed": true,
          "internalType": "address",
          "name": "newOwner",
          "type": "address"
        }
      ],
      "name": "OwnershipTransferred",
      "type": "event"
    },
    {
      "anonymous": false,
      "inputs": [
        {
          "indexed": true,
          "internalType": "address",
          "name": "operator",
          "type": "address"
        },
        {
          "indexed": true,
          "internalType": "address",
          "name": "from",
          "type": "address"
        },
        {
          "indexed": true,
          "internalType": "address",
          "name": "to",
          "type": "address"
        },
        {
          "indexed": false,
          "internalType": "uint256[]",
          "name": "ids",
          "type": "uint256[]"
        },
        {
          "indexed": false,
          "internalType": "uint256[]",
          "name": "values",
          "type": "uint256[]"
        }
      ],
      "name": "TransferBatch",
      "type": "event"
    },
    {
      "anonymous": false,
      "inputs": [
        {
          "indexed": true,
          "internalType": "address",
          "name": "operator",
          "type": "address"
        },
        {
          "indexed": true,
          "internalType": "address",
          "name": "from",
          "type": "address"
        },
        {
          "indexed": true,
          "internalType": "address",
          "name": "to",
          "type": "address"
        },
        {
          "indexed": false,
          "internalType": "uint256",
          "name": "id",
          "type": "uint256"
        },
        {
          "indexed": false,
          "internalType": "uint256",
          "name": "value",
          "type": "uint256"
        }
      ],
      "name": "TransferSingle",
      "type": "event"
    },
    {
      "anonymous": false,
      "inputs": [
        {
          "indexed": false,
          "internalType": "string",
          "name": "value",
          "type": "string"
        },
        {
          "indexed": true,
          "internalType": "uint256",
          "name": "id",
          "type": "uint256"
        }
      ],
      "name": "URI",
      "type": "event"
    },
    {
      "inputs": [
        {
          "internalType": "address",
          "name": "_minter",
          "type": "address"
        }
      ],
      "name": "addMinter",
      "outputs": [],
      "stateMutability": "nonpayable",
      "type": "function"
    },
    {
      "inputs": [
        {
          "internalType": "address",
          "name": "account",
          "type": "address"
        },
        {
          "internalType": "uint256",
          "name": "id",
          "type": "uint256"
        }
      ],
      "name": "balanceOf",
      "outputs": [
        {
          "internalType": "uint256",
          "name": "",
          "type": "uint256"
        }
      ],
      "stateMutability": "view",
      "type": "function"
    },
    {
      "inputs": [
        {
          "internalType": "address[]",
          "name": "accounts",
          "type": "address[]"
        },
        {
          "internalType": "uint256[]",
          "name": "ids",
          "type": "uint256[]"
        }
      ],
      "name": "balanceOfBatch",
      "outputs": [
        {
          "internalType": "uint256[]",
          "name": "",
          "type": "uint256[]"
        }
      ],
      "stateMutability": "view",
      "type": "function"
    },
    {
      "inputs": [],
      "name": "baseURI",
      "outputs": [
        {
          "internalType": "string",
          "name": "",
          "type": "string"
        }
      ],
      "stateMutability": "view",
      "type": "function"
    },
    {
      "inputs": [
        {
          "internalType": "address",
          "name": "account",
          "type": "address"
        },
        {
          "internalType": "address",
          "name": "operator",
          "type": "address"
        }
      ],
      "name": "isApprovedForAll",
      "outputs": [
        {
          "internalType": "bool",
          "name": "",
          "type": "bool"
        }
      ],
      "stateMutability": "view",
      "type": "function"
    },
    {
      "inputs": [
        {
          "internalType": "address",
          "name": "account",
          "type": "address"
        },
        {
          "internalType": "uint256",
          "name": "id",
          "type": "uint256"
        }
      ],
      "name": "mint",
      "outputs": [],
      "stateMutability": "nonpayable",
      "type": "function"
    },
    {
      "inputs": [],
      "name": "owner",
      "outputs": [
        {
          "internalType": "address",
          "name": "",
          "type": "address"
        }
      ],
      "stateMutability": "view",
      "type": "function"
    },
    {
      "inputs": [
        {
          "internalType": "address",
          "name": "_minter",
          "type": "address"
        }
      ],
      "name": "removeMinter",
      "outputs": [],
      "stateMutability": "nonpayable",
      "type": "function"
    },
    {
      "inputs": [],
      "name": "renounceOwnership",
      "outputs": [],
      "stateMutability": "nonpayable",
      "type": "function"
    },
    {
      "inputs": [
        {
          "internalType": "address",
          "name": "from",
          "type": "address"
        },
        {
          "internalType": "address",
          "name": "to",
          "type": "address"
        },
        {
          "internalType": "uint256[]",
          "name": "ids",
          "type": "uint256[]"
        },
        {
          "internalType": "uint256[]",
          "name": "amounts",
          "type": "uint256[]"
        },
        {
          "internalType": "bytes",
          "name": "data",
          "type": "bytes"
        }
      ],
      "name": "safeBatchTransferFrom",
      "outputs": [],
      "stateMutability": "nonpayable",
      "type": "function"
    },
    {
      "inputs": [
        {
          "internalType": "address",
          "name": "from",
          "type": "address"
        },
        {
          "internalType": "address",
          "name": "to",
          "type": "address"
        },
        {
          "internalType": "uint256",
          "name": "id",
          "type": "uint256"
        },
        {
          "internalType": "uint256",
          "name": "amount",
          "type": "uint256"
        },
        {
          "internalType": "bytes",
          "name": "data",
          "type": "bytes"
        }
      ],
      "name": "safeTransferFrom",
      "outputs": [],
      "stateMutability": "nonpayable",
      "type": "function"
    },
    {
      "inputs": [
        {
          "internalType": "address",
          "name": "operator",
          "type": "address"
        },
        {
          "internalType": "bool",
          "name": "approved",
          "type": "bool"
        }
      ],
      "name": "setApprovalForAll",
      "outputs": [],
      "stateMutability": "nonpayable",
      "type": "function"
    },
    {
      "inputs": [
        {
          "internalType": "string",
          "name": "newuri",
          "type": "string"
        }
      ],
      "name": "setURI",
      "outputs": [],
      "stateMutability": "nonpayable",
      "type": "function"
    },
    {
      "inputs": [
        {
          "internalType": "bytes4",
          "name": "interfaceId",
          "type": "bytes4"
        }
      ],
      "name": "supportsInterface",
      "outputs": [
        {
          "internalType": "bool",
          "name": "",
          "type": "bool"
        }
      ],
      "stateMutability": "view",
      "type": "function"
    },
    {
      "inputs": [
        {
          "internalType": "address",
          "name": "newOwner",
          "type": "address"
        }
      ],
      "name": "transferOwnership",
      "outputs": [],
      "stateMutability": "nonpayable",
      "type": "function"
    },
    {
      "inputs": [
        {
          "internalType": "string",
          "name": "_based",
          "type": "string"
        }
      ],
      "name": "updateBaseURI",
      "outputs": [],
      "stateMutability": "nonpayable",
      "type": "function"
    },
    {
      "inputs": [
        {
          "internalType": "uint256",
          "name": "tokenId",
          "type": "uint256"
        }
      ],
      "name": "uri",
      "outputs": [
        {
          "internalType": "string",
          "name": "",
          "type": "string"
        }
      ],
      "stateMutability": "view",
      "type": "function"
    }
  ],
  "bytecode": "0x6080604052604051806020016040528060008152506004908162000024919062000463565b503480156200003257600080fd5b506040518060600160405280602e81526020016200379a602e91396200006d620000616200010860201b60201c565b6200011060201b60201c565b6200007e81620001d460201b60201c565b506001600660003373ffffffffffffffffffffffffffffffffffffffff1673ffffffffffffffffffffffffffffffffffffffff16815260200190815260200160002060006101000a81548160ff0219169083151502179055506040518060600160405280602e81526020016200379a602e91396007908162000101919062000463565b506200054a565b600033905090565b60008060009054906101000a900473ffffffffffffffffffffffffffffffffffffffff169050816000806101000a81548173ffffffffffffffffffffffffffffffffffffffff021916908373ffffffffffffffffffffffffffffffffffffffff1602179055508173ffffffffffffffffffffffffffffffffffffffff168173ffffffffffffffffffffffffffffffffffffffff167f8be0079c531659141344cd1fd0a4f28419497f9722a3daafe3b4186f6b6457e060405160405180910390a35050565b8060039081620001e5919062000463565b5050565b600081519050919050565b7f4e487b7100000000000000000000000000000000000000000000000000000000600052604160045260246000fd5b7f4e487b7100000000000000000000000000000000000000000000000000000000600052602260045260246000fd5b600060028204905060018216806200026b57607f821691505b60208210810362000281576200028062000223565b5b50919050565b60008190508160005260206000209050919050565b60006020601f8301049050919050565b600082821b905092915050565b600060088302620002eb7fffffffffffffffffffffffffffffffffffffffffffffffffffffffffffffffff82620002ac565b620002f78683620002ac565b95508019841693508086168417925050509392505050565b6000819050919050565b6000819050919050565b6000620003446200033e62000338846200030f565b62000319565b6200030f565b9050919050565b6000819050919050565b620003608362000323565b620003786200036f826200034b565b848454620002b9565b825550505050565b600090565b6200038f62000380565b6200039c81848462000355565b505050565b5b81811015620003c457620003b860008262000385565b600181019050620003a2565b5050565b601f8211156200041357620003dd8162000287565b620003e8846200029c565b81016020851015620003f8578190505b6200041062000407856200029c565b830182620003a1565b50505b505050565b600082821c905092915050565b6000620004386000198460080262000418565b1980831691505092915050565b600062000453838362000425565b9150826002028217905092915050565b6200046e82620001e9565b67ffffffffffffffff8111156200048a5762000489620001f4565b5b62000496825462000252565b620004a3828285620003c8565b600060209050601f831160018114620004db5760008415620004c6578287015190505b620004d2858262000445565b86555062000542565b601f198416620004eb8662000287565b60005b828110156200051557848901518255600182019150602085019450602081019050620004ee565b8683101562000535578489015162000531601f89168262000425565b8355505b6001600288020188555050505b505050505050565b613240806200055a6000396000f3fe608060405234801561001057600080fd5b506004361061010a5760003560e01c80636c0360eb116100a2578063983b2d5611610071578063983b2d56146102a1578063a22cb465146102bd578063e985e9c5146102d9578063f242432a14610309578063f2fde38b146103255761010a565b80636c0360eb1461023f578063715018a61461025d5780638da5cb5b14610267578063931688cb146102855761010a565b80632eb2c2d6116100de5780632eb2c2d6146101bb5780633092afd5146101d757806340c10f19146101f35780634e1273f41461020f5761010a565b8062fdd58e1461010f57806301ffc9a71461013f57806302fe53051461016f5780630e89341c1461018b575b600080fd5b61012960048036038101906101249190611a8b565b610341565b6040516101369190611ada565b60405180910390f35b61015960048036038101906101549190611b4d565b61040a565b6040516101669190611b95565b60405180910390f35b61018960048036038101906101849190611cf6565b6104ec565b005b6101a560048036038101906101a09190611d3f565b610500565b6040516101b29190611deb565b60405180910390f35b6101d560048036038101906101d09190611f76565b61052c565b005b6101f160048036038101906101ec9190612045565b6105cd565b005b61020d60048036038101906102089190611a8b565b610630565b005b61022960048036038101906102249190612135565b6106a6565b604051610236919061226b565b60405180910390f35b6102476107bf565b6040516102549190611deb565b60405180910390f35b61026561084d565b005b61026f610861565b60405161027c919061229c565b60405180910390f35b61029f600480360381019061029a9190611cf6565b61088a565b005b6102bb60048036038101906102b69190612045565b61089e565b005b6102d760048036038101906102d291906122e3565b610901565b005b6102f360048036038101906102ee9190612323565b610917565b6040516103009190611b95565b60405180910390f35b610323600480360381019061031e9190612363565b6109ab565b005b61033f600480360381019061033a9190612045565b610a4c565b005b60008073ffffffffffffffffffffffffffffffffffffffff168373ffffffffffffffffffffffffffffffffffffffff16036103b1576040517f08c379a00000000000000000000000000000000000000000000000000000000081526004016103a89061246c565b60405180910390fd5b6001600083815260200190815260200160002060008473ffffffffffffffffffffffffffffffffffffffff1673ffffffffffffffffffffffffffffffffffffffff16815260200190815260200160002054905092915050565b60007fd9b67a26000000000000000000000000000000000000000000000000000000007bffffffffffffffffffffffffffffffffffffffffffffffffffffffff1916827bffffffffffffffffffffffffffffffffffffffffffffffffffffffff191614806104d557507f0e89341c000000000000000000000000000000000000000000000000000000007bffffffffffffffffffffffffffffffffffffffffffffffffffffffff1916827bffffffffffffffffffffffffffffffffffffffffffffffffffffffff1916145b806104e557506104e482610acf565b5b9050919050565b6104f4610b39565b6104fd81610bb7565b50565b60606007826040516020016105169291906125fc565b6040516020818303038152906040529050919050565b610534610bca565b73ffffffffffffffffffffffffffffffffffffffff168573ffffffffffffffffffffffffffffffffffffffff16148061057a575061057985610574610bca565b610917565b5b6105b9576040517f08c379a00000000000000000000000000000000000000000000000000000000081526004016105b0906126a1565b60405180910390fd5b6105c68585858585610bd2565b5050505050565b6105d5610b39565b6000600660008373ffffffffffffffffffffffffffffffffffffffff1673ffffffffffffffffffffffffffffffffffffffff16815260200190815260200160002060006101000a81548160ff02191690831515021790555050565b600660003373ffffffffffffffffffffffffffffffffffffffff1673ffffffffffffffffffffffffffffffffffffffff16815260200190815260200160002060009054906101000a900460ff1661068657600080fd5b6106a28282600160405180602001604052806000815250610ef6565b5050565b606081518351146106ec576040517f08c379a00000000000000000000000000000000000000000000000000000000081526004016106e390612733565b60405180910390fd5b6000835167ffffffffffffffff81111561070957610708611bcb565b5b6040519080825280602002602001820160405280156107375781602001602082028036833780820191505090505b50905060005b84518110156107b45761078485828151811061075c5761075b612753565b5b602002602001015185838151811061077757610776612753565b5b6020026020010151610341565b82828151811061079757610796612753565b5b602002602001018181525050806107ad906127b1565b905061073d565b508091505092915050565b600780546107cc906124bb565b80601f01602080910402602001604051908101604052809291908181526020018280546107f8906124bb565b80156108455780601f1061081a57610100808354040283529160200191610845565b820191906000526020600020905b81548152906001019060200180831161082857829003601f168201915b505050505081565b610855610b39565b61085f60006110a7565b565b60008060009054906101000a900473ffffffffffffffffffffffffffffffffffffffff16905090565b610892610b39565b61089b8161116b565b50565b6108a6610b39565b6001600660008373ffffffffffffffffffffffffffffffffffffffff1673ffffffffffffffffffffffffffffffffffffffff16815260200190815260200160002060006101000a81548160ff02191690831515021790555050565b61091361090c610bca565b838361117e565b5050565b6000600260008473ffffffffffffffffffffffffffffffffffffffff1673ffffffffffffffffffffffffffffffffffffffff16815260200190815260200160002060008373ffffffffffffffffffffffffffffffffffffffff1673ffffffffffffffffffffffffffffffffffffffff16815260200190815260200160002060009054906101000a900460ff16905092915050565b6109b3610bca565b73ffffffffffffffffffffffffffffffffffffffff168573ffffffffffffffffffffffffffffffffffffffff1614806109f957506109f8856109f3610bca565b610917565b5b610a38576040517f08c379a0000000000000000000000000000000000000000000000000000000008152600401610a2f906126a1565b60405180910390fd5b610a4585858585856112ea565b5050505050565b610a54610b39565b600073ffffffffffffffffffffffffffffffffffffffff168173ffffffffffffffffffffffffffffffffffffffff1603610ac3576040517f08c379a0000000000000000000000000000000000000000000000000000000008152600401610aba9061286b565b60405180910390fd5b610acc816110a7565b50565b60007f01ffc9a7000000000000000000000000000000000000000000000000000000007bffffffffffffffffffffffffffffffffffffffffffffffffffffffff1916827bffffffffffffffffffffffffffffffffffffffffffffffffffffffff1916149050919050565b610b41610bca565b73ffffffffffffffffffffffffffffffffffffffff16610b5f610861565b73ffffffffffffffffffffffffffffffffffffffff1614610bb5576040517f08c379a0000000000000000000000000000000000000000000000000000000008152600401610bac906128d7565b60405180910390fd5b565b8060039081610bc69190612a8e565b5050565b600033905090565b8151835114610c16576040517f08c379a0000000000000000000000000000000000000000000000000000000008152600401610c0d90612bd2565b60405180910390fd5b600073ffffffffffffffffffffffffffffffffffffffff168473ffffffffffffffffffffffffffffffffffffffff1603610c85576040517f08c379a0000000000000000000000000000000000000000000000000000000008152600401610c7c90612c64565b60405180910390fd5b6000610c8f610bca565b9050610c9f818787878787611588565b60005b8451811015610e53576000858281518110610cc057610cbf612753565b5b602002602001015190506000858381518110610cdf57610cde612753565b5b6020026020010151905060006001600084815260200190815260200160002060008b73ffffffffffffffffffffffffffffffffffffffff1673ffffffffffffffffffffffffffffffffffffffff16815260200190815260200160002054905081811015610d81576040517f08c379a0000000000000000000000000000000000000000000000000000000008152600401610d7890612cf6565b60405180910390fd5b8181036001600085815260200190815260200160002060008c73ffffffffffffffffffffffffffffffffffffffff1673ffffffffffffffffffffffffffffffffffffffff16815260200190815260200160002081905550816001600085815260200190815260200160002060008b73ffffffffffffffffffffffffffffffffffffffff1673ffffffffffffffffffffffffffffffffffffffff1681526020019081526020016000206000828254610e389190612d16565b9250508190555050505080610e4c906127b1565b9050610ca2565b508473ffffffffffffffffffffffffffffffffffffffff168673ffffffffffffffffffffffffffffffffffffffff168273ffffffffffffffffffffffffffffffffffffffff167f4a39dc06d4c0dbc64b70af90fd698a233a518aa5d07e595d983b8c0526c8f7fb8787604051610eca929190612d4a565b60405180910390a4610ee0818787878787611590565b610eee818787878787611598565b505050505050565b600073ffffffffffffffffffffffffffffffffffffffff168473ffffffffffffffffffffffffffffffffffffffff1603610f65576040517f08c379a0000000000000000000000000000000000000000000000000000000008152600401610f5c90612df3565b60405180910390fd5b6000610f6f610bca565b90506000610f7c8561176f565b90506000610f898561176f565b9050610f9a83600089858589611588565b846001600088815260200190815260200160002060008973ffffffffffffffffffffffffffffffffffffffff1673ffffffffffffffffffffffffffffffffffffffff1681526020019081526020016000206000828254610ffa9190612d16565b925050819055508673ffffffffffffffffffffffffffffffffffffffff16600073ffffffffffffffffffffffffffffffffffffffff168473ffffffffffffffffffffffffffffffffffffffff167fc3d58168c5ae7397731d063d5bbf3d657854427343f4c083240f7aacaa2d0f628989604051611078929190612e13565b60405180910390a461108f83600089858589611590565b61109e836000898989896117e9565b50505050505050565b60008060009054906101000a900473ffffffffffffffffffffffffffffffffffffffff169050816000806101000a81548173ffffffffffffffffffffffffffffffffffffffff021916908373ffffffffffffffffffffffffffffffffffffffff1602179055508173ffffffffffffffffffffffffffffffffffffffff168173ffffffffffffffffffffffffffffffffffffffff167f8be0079c531659141344cd1fd0a4f28419497f9722a3daafe3b4186f6b6457e060405160405180910390a35050565b806004908161117a9190612a8e565b5050565b8173ffffffffffffffffffffffffffffffffffffffff168373ffffffffffffffffffffffffffffffffffffffff16036111ec576040517f08c379a00000000000000000000000000000000000000000000000000000000081526004016111e390612eae565b60405180910390fd5b80600260008573ffffffffffffffffffffffffffffffffffffffff1673ffffffffffffffffffffffffffffffffffffffff16815260200190815260200160002060008473ffffffffffffffffffffffffffffffffffffffff1673ffffffffffffffffffffffffffffffffffffffff16815260200190815260200160002060006101000a81548160ff0219169083151502179055508173ffffffffffffffffffffffffffffffffffffffff168373ffffffffffffffffffffffffffffffffffffffff167f17307eab39ab6107e8899845ad3d59bd9653f200f220920489ca2b5937696c31836040516112dd9190611b95565b60405180910390a3505050565b600073ffffffffffffffffffffffffffffffffffffffff168473ffffffffffffffffffffffffffffffffffffffff1603611359576040517f08c379a000000000000000000000000000000000000000000000000000000000815260040161135090612c64565b60405180910390fd5b6000611363610bca565b905060006113708561176f565b9050600061137d8561176f565b905061138d838989858589611588565b60006001600088815260200190815260200160002060008a73ffffffffffffffffffffffffffffffffffffffff1673ffffffffffffffffffffffffffffffffffffffff16815260200190815260200160002054905085811015611425576040517f08c379a000000000000000000000000000000000000000000000000000000000815260040161141c90612cf6565b60405180910390fd5b8581036001600089815260200190815260200160002060008b73ffffffffffffffffffffffffffffffffffffffff1673ffffffffffffffffffffffffffffffffffffffff16815260200190815260200160002081905550856001600089815260200190815260200160002060008a73ffffffffffffffffffffffffffffffffffffffff1673ffffffffffffffffffffffffffffffffffffffff16815260200190815260200160002060008282546114dc9190612d16565b925050819055508773ffffffffffffffffffffffffffffffffffffffff168973ffffffffffffffffffffffffffffffffffffffff168573ffffffffffffffffffffffffffffffffffffffff167fc3d58168c5ae7397731d063d5bbf3d657854427343f4c083240f7aacaa2d0f628a8a604051611559929190612e13565b60405180910390a461156f848a8a86868a611590565b61157d848a8a8a8a8a6117e9565b505050505050505050565b505050505050565b505050505050565b6115b78473ffffffffffffffffffffffffffffffffffffffff166119c0565b15611767578373ffffffffffffffffffffffffffffffffffffffff1663bc197c8187878686866040518663ffffffff1660e01b81526004016115fd959493929190612f23565b6020604051808303816000875af192505050801561163957506040513d601f19601f820116820180604052508101906116369190612fa0565b60015b6116de57611645612fda565b806308c379a0036116a15750611659612ffc565b8061166457506116a3565b806040517f08c379a00000000000000000000000000000000000000000000000000000000081526004016116989190611deb565b60405180910390fd5b505b6040517f08c379a00000000000000000000000000000000000000000000000000000000081526004016116d5906130fe565b60405180910390fd5b63bc197c8160e01b7bffffffffffffffffffffffffffffffffffffffffffffffffffffffff1916817bffffffffffffffffffffffffffffffffffffffffffffffffffffffff191614611765576040517f08c379a000000000000000000000000000000000000000000000000000000000815260040161175c90613190565b60405180910390fd5b505b505050505050565b60606000600167ffffffffffffffff81111561178e5761178d611bcb565b5b6040519080825280602002602001820160405280156117bc5781602001602082028036833780820191505090505b50905082816000815181106117d4576117d3612753565b5b60200260200101818152505080915050919050565b6118088473ffffffffffffffffffffffffffffffffffffffff166119c0565b156119b8578373ffffffffffffffffffffffffffffffffffffffff1663f23a6e6187878686866040518663ffffffff1660e01b815260040161184e9594939291906131b0565b6020604051808303816000875af192505050801561188a57506040513d601f19601f820116820180604052508101906118879190612fa0565b60015b61192f57611896612fda565b806308c379a0036118f257506118aa612ffc565b806118b557506118f4565b806040517f08c379a00000000000000000000000000000000000000000000000000000000081526004016118e99190611deb565b60405180910390fd5b505b6040517f08c379a0000000000000000000000000000000000000000000000000000000008152600401611926906130fe565b60405180910390fd5b63f23a6e6160e01b7bffffffffffffffffffffffffffffffffffffffffffffffffffffffff1916817bffffffffffffffffffffffffffffffffffffffffffffffffffffffff1916146119b6576040517f08c379a00000000000000000000000000000000000000000000000000000000081526004016119ad90613190565b60405180910390fd5b505b505050505050565b6000808273ffffffffffffffffffffffffffffffffffffffff163b119050919050565b6000604051905090565b600080fd5b600080fd5b600073ffffffffffffffffffffffffffffffffffffffff82169050919050565b6000611a22826119f7565b9050919050565b611a3281611a17565b8114611a3d57600080fd5b50565b600081359050611a4f81611a29565b92915050565b6000819050919050565b611a6881611a55565b8114611a7357600080fd5b50565b600081359050611a8581611a5f565b92915050565b60008060408385031215611aa257611aa16119ed565b5b6000611ab085828601611a40565b9250506020611ac185828601611a76565b9150509250929050565b611ad481611a55565b82525050565b6000602082019050611aef6000830184611acb565b92915050565b60007fffffffff0000000000000000000000000000000000000000000000000000000082169050919050565b611b2a81611af5565b8114611b3557600080fd5b50565b600081359050611b4781611b21565b92915050565b600060208284031215611b6357611b626119ed565b5b6000611b7184828501611b38565b91505092915050565b60008115159050919050565b611b8f81611b7a565b82525050565b6000602082019050611baa6000830184611b86565b92915050565b600080fd5b600080fd5b6000601f19601f8301169050919050565b7f4e487b7100000000000000000000000000000000000000000000000000000000600052604160045260246000fd5b611c0382611bba565b810181811067ffffffffffffffff82111715611c2257611c21611bcb565b5b80604052505050565b6000611c356119e3565b9050611c418282611bfa565b919050565b600067ffffffffffffffff821115611c6157611c60611bcb565b5b611c6a82611bba565b9050602081019050919050565b82818337600083830152505050565b6000611c99611c9484611c46565b611c2b565b905082815260208101848484011115611cb557611cb4611bb5565b5b611cc0848285611c77565b509392505050565b600082601f830112611cdd57611cdc611bb0565b5b8135611ced848260208601611c86565b91505092915050565b600060208284031215611d0c57611d0b6119ed565b5b600082013567ffffffffffffffff811115611d2a57611d296119f2565b5b611d3684828501611cc8565b91505092915050565b600060208284031215611d5557611d546119ed565b5b6000611d6384828501611a76565b91505092915050565b600081519050919050565b600082825260208201905092915050565b60005b83811015611da6578082015181840152602081019050611d8b565b60008484015250505050565b6000611dbd82611d6c565b611dc78185611d77565b9350611dd7818560208601611d88565b611de081611bba565b840191505092915050565b60006020820190508181036000830152611e058184611db2565b905092915050565b600067ffffffffffffffff821115611e2857611e27611bcb565b5b602082029050602081019050919050565b600080fd5b6000611e51611e4c84611e0d565b611c2b565b90508083825260208201905060208402830185811115611e7457611e73611e39565b5b835b81811015611e9d5780611e898882611a76565b845260208401935050602081019050611e76565b5050509392505050565b600082601f830112611ebc57611ebb611bb0565b5b8135611ecc848260208601611e3e565b91505092915050565b600067ffffffffffffffff821115611ef057611eef611bcb565b5b611ef982611bba565b9050602081019050919050565b6000611f19611f1484611ed5565b611c2b565b905082815260208101848484011115611f3557611f34611bb5565b5b611f40848285611c77565b509392505050565b600082601f830112611f5d57611f5c611bb0565b5b8135611f6d848260208601611f06565b91505092915050565b600080600080600060a08688031215611f9257611f916119ed565b5b6000611fa088828901611a40565b9550506020611fb188828901611a40565b945050604086013567ffffffffffffffff811115611fd257611fd16119f2565b5b611fde88828901611ea7565b935050606086013567ffffffffffffffff811115611fff57611ffe6119f2565b5b61200b88828901611ea7565b925050608086013567ffffffffffffffff81111561202c5761202b6119f2565b5b61203888828901611f48565b9150509295509295909350565b60006020828403121561205b5761205a6119ed565b5b600061206984828501611a40565b91505092915050565b600067ffffffffffffffff82111561208d5761208c611bcb565b5b602082029050602081019050919050565b60006120b16120ac84612072565b611c2b565b905080838252602082019050602084028301858111156120d4576120d3611e39565b5b835b818110156120fd57806120e98882611a40565b8452602084019350506020810190506120d6565b5050509392505050565b600082601f83011261211c5761211b611bb0565b5b813561212c84826020860161209e565b91505092915050565b6000806040838503121561214c5761214b6119ed565b5b600083013567ffffffffffffffff81111561216a576121696119f2565b5b61217685828601612107565b925050602083013567ffffffffffffffff811115612197576121966119f2565b5b6121a385828601611ea7565b9150509250929050565b600081519050919050565b600082825260208201905092915050565b6000819050602082019050919050565b6121e281611a55565b82525050565b60006121f483836121d9565b60208301905092915050565b6000602082019050919050565b6000612218826121ad565b61222281856121b8565b935061222d836121c9565b8060005b8381101561225e57815161224588826121e8565b975061225083612200565b925050600181019050612231565b5085935050505092915050565b60006020820190508181036000830152612285818461220d565b905092915050565b61229681611a17565b82525050565b60006020820190506122b1600083018461228d565b92915050565b6122c081611b7a565b81146122cb57600080fd5b50565b6000813590506122dd816122b7565b92915050565b600080604083850312156122fa576122f96119ed565b5b600061230885828601611a40565b9250506020612319858286016122ce565b9150509250929050565b6000806040838503121561233a576123396119ed565b5b600061234885828601611a40565b925050602061235985828601611a40565b9150509250929050565b600080600080600060a0868803121561237f5761237e6119ed565b5b600061238d88828901611a40565b955050602061239e88828901611a40565b94505060406123af88828901611a76565b93505060606123c088828901611a76565b925050608086013567ffffffffffffffff8111156123e1576123e06119f2565b5b6123ed88828901611f48565b9150509295509295909350565b7f455243313135353a2061646472657373207a65726f206973206e6f742061207660008201527f616c6964206f776e657200000000000000000000000000000000000000000000602082015250565b6000612456602a83611d77565b9150612461826123fa565b604082019050919050565b6000602082019050818103600083015261248581612449565b9050919050565b7f4e487b7100000000000000000000000000000000000000000000000000000000600052602260045260246000fd5b600060028204905060018216806124d357607f821691505b6020821081036124e6576124e561248c565b5b50919050565b600081905092915050565b60008190508160005260206000209050919050565b60008154612519816124bb565b61252381866124ec565b9450600182166000811461253e576001811461255357612586565b60ff1983168652811515820286019350612586565b61255c856124f7565b60005b8381101561257e5781548189015260018201915060208101905061255f565b838801955050505b50505092915050565b6000819050919050565b6125aa6125a582611a55565b61258f565b82525050565b7f2e6a736f6e000000000000000000000000000000000000000000000000000000600082015250565b60006125e66005836124ec565b91506125f1826125b0565b600582019050919050565b6000612608828561250c565b91506126148284612599565b602082019150612623826125d9565b91508190509392505050565b7f455243313135353a2063616c6c6572206973206e6f7420746f6b656e206f776e60008201527f6572206f7220617070726f766564000000000000000000000000000000000000602082015250565b600061268b602e83611d77565b91506126968261262f565b604082019050919050565b600060208201905081810360008301526126ba8161267e565b9050919050565b7f455243313135353a206163636f756e747320616e6420696473206c656e67746860008201527f206d69736d617463680000000000000000000000000000000000000000000000602082015250565b600061271d602983611d77565b9150612728826126c1565b604082019050919050565b6000602082019050818103600083015261274c81612710565b9050919050565b7f4e487b7100000000000000000000000000000000000000000000000000000000600052603260045260246000fd5b7f4e487b7100000000000000000000000000000000000000000000000000000000600052601160045260246000fd5b60006127bc82611a55565b91507fffffffffffffffffffffffffffffffffffffffffffffffffffffffffffffffff82036127ee576127ed612782565b5b600182019050919050565b7f4f776e61626c653a206e6577206f776e657220697320746865207a65726f206160008201527f6464726573730000000000000000000000000000000000000000000000000000602082015250565b6000612855602683611d77565b9150612860826127f9565b604082019050919050565b6000602082019050818103600083015261288481612848565b9050919050565b7f4f776e61626c653a2063616c6c6572206973206e6f7420746865206f776e6572600082015250565b60006128c1602083611d77565b91506128cc8261288b565b602082019050919050565b600060208201905081810360008301526128f0816128b4565b9050919050565b60006020601f8301049050919050565b600082821b905092915050565b6000600883026129447fffffffffffffffffffffffffffffffffffffffffffffffffffffffffffffffff82612907565b61294e8683612907565b95508019841693508086168417925050509392505050565b6000819050919050565b600061298b61298661298184611a55565b612966565b611a55565b9050919050565b6000819050919050565b6129a583612970565b6129b96129b182612992565b848454612914565b825550505050565b600090565b6129ce6129c1565b6129d981848461299c565b505050565b5b818110156129fd576129f26000826129c6565b6001810190506129df565b5050565b601f821115612a4257612a13816124f7565b612a1c846128f7565b81016020851015612a2b578190505b612a3f612a37856128f7565b8301826129de565b50505b505050565b600082821c905092915050565b6000612a6560001984600802612a47565b1980831691505092915050565b6000612a7e8383612a54565b9150826002028217905092915050565b612a9782611d6c565b67ffffffffffffffff811115612ab057612aaf611bcb565b5b612aba82546124bb565b612ac5828285612a01565b600060209050601f831160018114612af85760008415612ae6578287015190505b612af08582612a72565b865550612b58565b601f198416612b06866124f7565b60005b82811015612b2e57848901518255600182019150602085019450602081019050612b09565b86831015612b4b5784890151612b47601f891682612a54565b8355505b6001600288020188555050505b505050505050565b7f455243313135353a2069647320616e6420616d6f756e7473206c656e6774682060008201527f6d69736d61746368000000000000000000000000000000000000000000000000602082015250565b6000612bbc602883611d77565b9150612bc782612b60565b604082019050919050565b60006020820190508181036000830152612beb81612baf565b9050919050565b7f455243313135353a207472616e7366657220746f20746865207a65726f20616460008201527f6472657373000000000000000000000000000000000000000000000000000000602082015250565b6000612c4e602583611d77565b9150612c5982612bf2565b604082019050919050565b60006020820190508181036000830152612c7d81612c41565b9050919050565b7f455243313135353a20696e73756666696369656e742062616c616e636520666f60008201527f72207472616e7366657200000000000000000000000000000000000000000000602082015250565b6000612ce0602a83611d77565b9150612ceb82612c84565b604082019050919050565b60006020820190508181036000830152612d0f81612cd3565b9050919050565b6000612d2182611a55565b9150612d2c83611a55565b9250828201905080821115612d4457612d43612782565b5b92915050565b60006040820190508181036000830152612d64818561220d565b90508181036020830152612d78818461220d565b90509392505050565b7f455243313135353a206d696e7420746f20746865207a65726f2061646472657360008201527f7300000000000000000000000000000000000000000000000000000000000000602082015250565b6000612ddd602183611d77565b9150612de882612d81565b604082019050919050565b60006020820190508181036000830152612e0c81612dd0565b9050919050565b6000604082019050612e286000830185611acb565b612e356020830184611acb565b9392505050565b7f455243313135353a2073657474696e6720617070726f76616c2073746174757360008201527f20666f722073656c660000000000000000000000000000000000000000000000602082015250565b6000612e98602983611d77565b9150612ea382612e3c565b604082019050919050565b60006020820190508181036000830152612ec781612e8b565b9050919050565b600081519050919050565b600082825260208201905092915050565b6000612ef582612ece565b612eff8185612ed9565b9350612f0f818560208601611d88565b612f1881611bba565b840191505092915050565b600060a082019050612f38600083018861228d565b612f45602083018761228d565b8181036040830152612f57818661220d565b90508181036060830152612f6b818561220d565b90508181036080830152612f7f8184612eea565b90509695505050505050565b600081519050612f9a81611b21565b92915050565b600060208284031215612fb657612fb56119ed565b5b6000612fc484828501612f8b565b91505092915050565b60008160e01c9050919050565b600060033d1115612ff95760046000803e612ff6600051612fcd565b90505b90565b600060443d106130895761300e6119e3565b60043d036004823e80513d602482011167ffffffffffffffff82111715613036575050613089565b808201805167ffffffffffffffff8111156130545750505050613089565b80602083010160043d038501811115613071575050505050613089565b61308082602001850186611bfa565b82955050505050505b90565b7f455243313135353a207472616e7366657220746f206e6f6e2d4552433131353560008201527f526563656976657220696d706c656d656e746572000000000000000000000000602082015250565b60006130e8603483611d77565b91506130f38261308c565b604082019050919050565b60006020820190508181036000830152613117816130db565b9050919050565b7f455243313135353a204552433131353552656365697665722072656a6563746560008201527f6420746f6b656e73000000000000000000000000000000000000000000000000602082015250565b600061317a602883611d77565b91506131858261311e565b604082019050919050565b600060208201905081810360008301526131a98161316d565b9050919050565b600060a0820190506131c5600083018861228d565b6131d2602083018761228d565b6131df6040830186611acb565b6131ec6060830185611acb565b81810360808301526131fe8184612eea565b9050969550505050505056fea2646970667358221220ffd3932ad0f4a165144751031131dadbb610ed70796f82d33e663461332b905664736f6c63430008130033516d6248377950736e6f434a646d366f78795538364b414e4a3448546a48464d6d4151453750666345566d695052",
  "linkReferences": {},
  "deployedLinkReferences": {}
}