{
  "_format": "hh-sol-artifact-1",
  "contractName": "PuzzleNFT",
  "sourceName": "contracts/PuzzleNFT.sol",
  "abi": [
    {
      "inputs": [
        {
          "internalType": "string",
          "name": "_baseURI",
          "type": "string"
        }
      ],
      "stateMutability": "nonpayable",
      "type": "constructor"
    },
    {
      "anonymous": false,
      "inputs": [
        {
          "indexed": true,
          "internalType": "address",
          "name": "account",
          "type": "address"
        },
        {
          "indexed": true,
          "internalType": "address",
          "name": "operator",
          "type": "address"
        },
        {
          "indexed": false,
          "internalType": "bool",
          "name": "approved",
          "type": "bool"
        }
      ],
      "name": "ApprovalForAll",
      "type": "event"
    },
    {
      "anonymous": false,
      "inputs": [
        {
          "indexed": true,
          "internalType": "address",
          "name": "previousOwner",
          "type": "address"
        },
        {
          "indexed": true,
          "internalType": "address",
          "name": "newOwner",
          "type": "address"
        }
      ],
      "name": "OwnershipTransferred",
      "type": "event"
    },
    {
      "anonymous": false,
      "inputs": [
        {
          "indexed": true,
          "internalType": "address",
          "name": "operator",
          "type": "address"
        },
        {
          "indexed": true,
          "internalType": "address",
          "name": "from",
          "type": "address"
        },
        {
          "indexed": true,
          "internalType": "address",
          "name": "to",
          "type": "address"
        },
        {
          "indexed": false,
          "internalType": "uint256[]",
          "name": "ids",
          "type": "uint256[]"
        },
        {
          "indexed": false,
          "internalType": "uint256[]",
          "name": "values",
          "type": "uint256[]"
        }
      ],
      "name": "TransferBatch",
      "type": "event"
    },
    {
      "anonymous": false,
      "inputs": [
        {
          "indexed": true,
          "internalType": "address",
          "name": "operator",
          "type": "address"
        },
        {
          "indexed": true,
          "internalType": "address",
          "name": "from",
          "type": "address"
        },
        {
          "indexed": true,
          "internalType": "address",
          "name": "to",
          "type": "address"
        },
        {
          "indexed": false,
          "internalType": "uint256",
          "name": "id",
          "type": "uint256"
        },
        {
          "indexed": false,
          "internalType": "uint256",
          "name": "value",
          "type": "uint256"
        }
      ],
      "name": "TransferSingle",
      "type": "event"
    },
    {
      "anonymous": false,
      "inputs": [
        {
          "indexed": false,
          "internalType": "string",
          "name": "value",
          "type": "string"
        },
        {
          "indexed": true,
          "internalType": "uint256",
          "name": "id",
          "type": "uint256"
        }
      ],
      "name": "URI",
      "type": "event"
    },
    {
      "inputs": [
        {
          "internalType": "address",
          "name": "_minter",
          "type": "address"
        }
      ],
      "name": "addMinter",
      "outputs": [],
      "stateMutability": "nonpayable",
      "type": "function"
    },
    {
      "inputs": [
        {
          "internalType": "address",
          "name": "account",
          "type": "address"
        },
        {
          "internalType": "uint256",
          "name": "id",
          "type": "uint256"
        }
      ],
      "name": "balanceOf",
      "outputs": [
        {
          "internalType": "uint256",
          "name": "",
          "type": "uint256"
        }
      ],
      "stateMutability": "view",
      "type": "function"
    },
    {
      "inputs": [
        {
          "internalType": "address[]",
          "name": "accounts",
          "type": "address[]"
        },
        {
          "internalType": "uint256[]",
          "name": "ids",
          "type": "uint256[]"
        }
      ],
      "name": "balanceOfBatch",
      "outputs": [
        {
          "internalType": "uint256[]",
          "name": "",
          "type": "uint256[]"
        }
      ],
      "stateMutability": "view",
      "type": "function"
    },
    {
      "inputs": [],
      "name": "baseURI",
      "outputs": [
        {
          "internalType": "string",
          "name": "",
          "type": "string"
        }
      ],
      "stateMutability": "view",
      "type": "function"
    },
    {
      "inputs": [
        {
          "internalType": "address",
          "name": "account",
          "type": "address"
        },
        {
          "internalType": "address",
          "name": "operator",
          "type": "address"
        }
      ],
      "name": "isApprovedForAll",
      "outputs": [
        {
          "internalType": "bool",
          "name": "",
          "type": "bool"
        }
      ],
      "stateMutability": "view",
      "type": "function"
    },
    {
      "inputs": [
        {
          "internalType": "address",
          "name": "account",
          "type": "address"
        },
        {
          "internalType": "uint256",
          "name": "id",
          "type": "uint256"
        }
      ],
      "name": "mint",
      "outputs": [],
      "stateMutability": "nonpayable",
      "type": "function"
    },
    {
      "inputs": [],
      "name": "owner",
      "outputs": [
        {
          "internalType": "address",
          "name": "",
          "type": "address"
        }
      ],
      "stateMutability": "view",
      "type": "function"
    },
    {
      "inputs": [
        {
          "internalType": "address",
          "name": "_minter",
          "type": "address"
        }
      ],
      "name": "removeMinter",
      "outputs": [],
      "stateMutability": "nonpayable",
      "type": "function"
    },
    {
      "inputs": [],
      "name": "renounceOwnership",
      "outputs": [],
      "stateMutability": "nonpayable",
      "type": "function"
    },
    {
      "inputs": [
        {
          "internalType": "address",
          "name": "from",
          "type": "address"
        },
        {
          "internalType": "address",
          "name": "to",
          "type": "address"
        },
        {
          "internalType": "uint256[]",
          "name": "ids",
          "type": "uint256[]"
        },
        {
          "internalType": "uint256[]",
          "name": "amounts",
          "type": "uint256[]"
        },
        {
          "internalType": "bytes",
          "name": "data",
          "type": "bytes"
        }
      ],
      "name": "safeBatchTransferFrom",
      "outputs": [],
      "stateMutability": "nonpayable",
      "type": "function"
    },
    {
      "inputs": [
        {
          "internalType": "address",
          "name": "from",
          "type": "address"
        },
        {
          "internalType": "address",
          "name": "to",
          "type": "address"
        },
        {
          "internalType": "uint256",
          "name": "id",
          "type": "uint256"
        },
        {
          "internalType": "uint256",
          "name": "amount",
          "type": "uint256"
        },
        {
          "internalType": "bytes",
          "name": "data",
          "type": "bytes"
        }
      ],
      "name": "safeTransferFrom",
      "outputs": [],
      "stateMutability": "nonpayable",
      "type": "function"
    },
    {
      "inputs": [
        {
          "internalType": "address",
          "name": "operator",
          "type": "address"
        },
        {
          "internalType": "bool",
          "name": "approved",
          "type": "bool"
        }
      ],
      "name": "setApprovalForAll",
      "outputs": [],
      "stateMutability": "nonpayable",
      "type": "function"
    },
    {
      "inputs": [
        {
          "internalType": "string",
          "name": "newuri",
          "type": "string"
        }
      ],
      "name": "setURI",
      "outputs": [],
      "stateMutability": "nonpayable",
      "type": "function"
    },
    {
      "inputs": [
        {
          "internalType": "bytes4",
          "name": "interfaceId",
          "type": "bytes4"
        }
      ],
      "name": "supportsInterface",
      "outputs": [
        {
          "internalType": "bool",
          "name": "",
          "type": "bool"
        }
      ],
      "stateMutability": "view",
      "type": "function"
    },
    {
      "inputs": [
        {
          "internalType": "uint256",
          "name": "",
          "type": "uint256"
        },
        {
          "internalType": "address",
          "name": "",
          "type": "address"
        }
      ],
      "name": "tokenIdToOwner",
      "outputs": [
        {
          "internalType": "bool",
          "name": "isValue",
          "type": "bool"
        }
      ],
      "stateMutability": "view",
      "type": "function"
    },
    {
      "inputs": [
        {
          "internalType": "address",
          "name": "newOwner",
          "type": "address"
        }
      ],
      "name": "transferOwnership",
      "outputs": [],
      "stateMutability": "nonpayable",
      "type": "function"
    },
    {
      "inputs": [
        {
          "internalType": "string",
          "name": "_based",
          "type": "string"
        }
      ],
      "name": "updateBaseURI",
      "outputs": [],
      "stateMutability": "nonpayable",
      "type": "function"
    },
    {
      "inputs": [
        {
          "internalType": "uint256",
          "name": "tokenId",
          "type": "uint256"
        }
      ],
      "name": "uri",
      "outputs": [
        {
          "internalType": "string",
          "name": "",
          "type": "string"
        }
      ],
      "stateMutability": "view",
      "type": "function"
    }
  ],
  "bytecode": "0x6080604052604051806020016040528060008152506004908162000024919062000473565b503480156200003257600080fd5b5060405162003d1038038062003d108339818101604052810190620000589190620006be565b80620000796200006d6200011860201b60201c565b6200012060201b60201c565b6200008a81620001e460201b60201c565b50604051806020016040528060011515815250600660003373ffffffffffffffffffffffffffffffffffffffff1673ffffffffffffffffffffffffffffffffffffffff16815260200190815260200160002060008201518160000160006101000a81548160ff021916908315150217905550905050806008908162000110919062000473565b50506200070f565b600033905090565b60008060009054906101000a900473ffffffffffffffffffffffffffffffffffffffff169050816000806101000a81548173ffffffffffffffffffffffffffffffffffffffff021916908373ffffffffffffffffffffffffffffffffffffffff1602179055508173ffffffffffffffffffffffffffffffffffffffff168173ffffffffffffffffffffffffffffffffffffffff167f8be0079c531659141344cd1fd0a4f28419497f9722a3daafe3b4186f6b6457e060405160405180910390a35050565b8060039081620001f5919062000473565b5050565b600081519050919050565b7f4e487b7100000000000000000000000000000000000000000000000000000000600052604160045260246000fd5b7f4e487b7100000000000000000000000000000000000000000000000000000000600052602260045260246000fd5b600060028204905060018216806200027b57607f821691505b60208210810362000291576200029062000233565b5b50919050565b60008190508160005260206000209050919050565b60006020601f8301049050919050565b600082821b905092915050565b600060088302620002fb7fffffffffffffffffffffffffffffffffffffffffffffffffffffffffffffffff82620002bc565b620003078683620002bc565b95508019841693508086168417925050509392505050565b6000819050919050565b6000819050919050565b6000620003546200034e62000348846200031f565b62000329565b6200031f565b9050919050565b6000819050919050565b620003708362000333565b620003886200037f826200035b565b848454620002c9565b825550505050565b600090565b6200039f62000390565b620003ac81848462000365565b505050565b5b81811015620003d457620003c860008262000395565b600181019050620003b2565b5050565b601f8211156200042357620003ed8162000297565b620003f884620002ac565b8101602085101562000408578190505b620004206200041785620002ac565b830182620003b1565b50505b505050565b600082821c905092915050565b6000620004486000198460080262000428565b1980831691505092915050565b600062000463838362000435565b9150826002028217905092915050565b6200047e82620001f9565b67ffffffffffffffff8111156200049a576200049962000204565b5b620004a6825462000262565b620004b3828285620003d8565b600060209050601f831160018114620004eb5760008415620004d6578287015190505b620004e2858262000455565b86555062000552565b601f198416620004fb8662000297565b60005b828110156200052557848901518255600182019150602085019450602081019050620004fe565b8683101562000545578489015162000541601f89168262000435565b8355505b6001600288020188555050505b505050505050565b6000604051905090565b600080fd5b600080fd5b600080fd5b600080fd5b6000601f19601f8301169050919050565b620005948262000578565b810181811067ffffffffffffffff82111715620005b657620005b562000204565b5b80604052505050565b6000620005cb6200055a565b9050620005d9828262000589565b919050565b600067ffffffffffffffff821115620005fc57620005fb62000204565b5b620006078262000578565b9050602081019050919050565b60005b838110156200063457808201518184015260208101905062000617565b60008484015250505050565b6000620006576200065184620005de565b620005bf565b90508281526020810184848401111562000676576200067562000573565b5b6200068384828562000614565b509392505050565b600082601f830112620006a357620006a26200056e565b5b8151620006b584826020860162000640565b91505092915050565b600060208284031215620006d757620006d662000564565b5b600082015167ffffffffffffffff811115620006f857620006f762000569565b5b62000706848285016200068b565b91505092915050565b6135f1806200071f6000396000f3fe608060405234801561001057600080fd5b50600436106101155760003560e01c80636c0360eb116100a2578063983b2d5611610071578063983b2d56146102dc578063a22cb465146102f8578063e985e9c514610314578063f242432a14610344578063f2fde38b1461036057610115565b80636c0360eb1461027a578063715018a6146102985780638da5cb5b146102a2578063931688cb146102c057610115565b80632eb2c2d6116100e95780632eb2c2d6146101c65780633092afd5146101e257806340c10f19146101fe5780634e1273f41461021a5780635ff684e61461024a57610115565b8062fdd58e1461011a57806301ffc9a71461014a57806302fe53051461017a5780630e89341c14610196575b600080fd5b610134600480360381019061012f9190611cfe565b61037c565b6040516101419190611d4d565b60405180910390f35b610164600480360381019061015f9190611dc0565b610445565b6040516101719190611e08565b60405180910390f35b610194600480360381019061018f9190611f69565b610527565b005b6101b060048036038101906101ab9190611fb2565b61053b565b6040516101bd919061205e565b60405180910390f35b6101e060048036038101906101db91906121e9565b610567565b005b6101fc60048036038101906101f791906122b8565b610608565b005b61021860048036038101906102139190611cfe565b610687565b005b610234600480360381019061022f91906123a8565b6108c5565b60405161024191906124de565b60405180910390f35b610264600480360381019061025f9190612500565b6109de565b6040516102719190611e08565b60405180910390f35b610282610a16565b60405161028f919061205e565b60405180910390f35b6102a0610aa4565b005b6102aa610ab8565b6040516102b7919061254f565b60405180910390f35b6102da60048036038101906102d59190611f69565b610ae1565b005b6102f660048036038101906102f191906122b8565b610af5565b005b610312600480360381019061030d9190612596565b610b74565b005b61032e600480360381019061032991906125d6565b610b8a565b60405161033b9190611e08565b60405180910390f35b61035e60048036038101906103599190612616565b610c1e565b005b61037a600480360381019061037591906122b8565b610cbf565b005b60008073ffffffffffffffffffffffffffffffffffffffff168373ffffffffffffffffffffffffffffffffffffffff16036103ec576040517f08c379a00000000000000000000000000000000000000000000000000000000081526004016103e39061271f565b60405180910390fd5b6001600083815260200190815260200160002060008473ffffffffffffffffffffffffffffffffffffffff1673ffffffffffffffffffffffffffffffffffffffff16815260200190815260200160002054905092915050565b60007fd9b67a26000000000000000000000000000000000000000000000000000000007bffffffffffffffffffffffffffffffffffffffffffffffffffffffff1916827bffffffffffffffffffffffffffffffffffffffffffffffffffffffff1916148061051057507f0e89341c000000000000000000000000000000000000000000000000000000007bffffffffffffffffffffffffffffffffffffffffffffffffffffffff1916827bffffffffffffffffffffffffffffffffffffffffffffffffffffffff1916145b80610520575061051f82610d42565b5b9050919050565b61052f610dac565b61053881610e2a565b50565b60606008826040516020016105519291906128af565b6040516020818303038152906040529050919050565b61056f610e3d565b73ffffffffffffffffffffffffffffffffffffffff168573ffffffffffffffffffffffffffffffffffffffff1614806105b557506105b4856105af610e3d565b610b8a565b5b6105f4576040517f08c379a00000000000000000000000000000000000000000000000000000000081526004016105eb90612954565b60405180910390fd5b6106018585858585610e45565b5050505050565b610610610dac565b604051806020016040528060001515815250600660008373ffffffffffffffffffffffffffffffffffffffff1673ffffffffffffffffffffffffffffffffffffffff16815260200190815260200160002060008201518160000160006101000a81548160ff02191690831515021790555090505050565b60011515600660003373ffffffffffffffffffffffffffffffffffffffff1673ffffffffffffffffffffffffffffffffffffffff16815260200190815260200160002060000160009054906101000a900460ff1615151461071d576040517f08c379a0000000000000000000000000000000000000000000000000000000008152600401610714906129e6565b60405180910390fd5b60011515600660008473ffffffffffffffffffffffffffffffffffffffff1673ffffffffffffffffffffffffffffffffffffffff16815260200190815260200160002060000160009054906101000a900460ff1615151461082057600115156007600083815260200190815260200160002060008473ffffffffffffffffffffffffffffffffffffffff1673ffffffffffffffffffffffffffffffffffffffff16815260200190815260200160002060000160009054906101000a900460ff1615150361081f576040517f08c379a000000000000000000000000000000000000000000000000000000000815260040161081690612a52565b60405180910390fd5b5b61083c8282600160405180602001604052806000815250611169565b6040518060200160405280600115158152506007600083815260200190815260200160002060008473ffffffffffffffffffffffffffffffffffffffff1673ffffffffffffffffffffffffffffffffffffffff16815260200190815260200160002060008201518160000160006101000a81548160ff0219169083151502179055509050505050565b6060815183511461090b576040517f08c379a000000000000000000000000000000000000000000000000000000000815260040161090290612ae4565b60405180910390fd5b6000835167ffffffffffffffff81111561092857610927611e3e565b5b6040519080825280602002602001820160405280156109565781602001602082028036833780820191505090505b50905060005b84518110156109d3576109a385828151811061097b5761097a612b04565b5b602002602001015185838151811061099657610995612b04565b5b602002602001015161037c565b8282815181106109b6576109b5612b04565b5b602002602001018181525050806109cc90612b62565b905061095c565b508091505092915050565b6007602052816000526040600020602052806000526040600020600091509150508060000160009054906101000a900460ff16905081565b60088054610a239061276e565b80601f0160208091040260200160405190810160405280929190818152602001828054610a4f9061276e565b8015610a9c5780601f10610a7157610100808354040283529160200191610a9c565b820191906000526020600020905b815481529060010190602001808311610a7f57829003601f168201915b505050505081565b610aac610dac565b610ab6600061131a565b565b60008060009054906101000a900473ffffffffffffffffffffffffffffffffffffffff16905090565b610ae9610dac565b610af2816113de565b50565b610afd610dac565b604051806020016040528060011515815250600660008373ffffffffffffffffffffffffffffffffffffffff1673ffffffffffffffffffffffffffffffffffffffff16815260200190815260200160002060008201518160000160006101000a81548160ff02191690831515021790555090505050565b610b86610b7f610e3d565b83836113f1565b5050565b6000600260008473ffffffffffffffffffffffffffffffffffffffff1673ffffffffffffffffffffffffffffffffffffffff16815260200190815260200160002060008373ffffffffffffffffffffffffffffffffffffffff1673ffffffffffffffffffffffffffffffffffffffff16815260200190815260200160002060009054906101000a900460ff16905092915050565b610c26610e3d565b73ffffffffffffffffffffffffffffffffffffffff168573ffffffffffffffffffffffffffffffffffffffff161480610c6c5750610c6b85610c66610e3d565b610b8a565b5b610cab576040517f08c379a0000000000000000000000000000000000000000000000000000000008152600401610ca290612954565b60405180910390fd5b610cb8858585858561155d565b5050505050565b610cc7610dac565b600073ffffffffffffffffffffffffffffffffffffffff168173ffffffffffffffffffffffffffffffffffffffff1603610d36576040517f08c379a0000000000000000000000000000000000000000000000000000000008152600401610d2d90612c1c565b60405180910390fd5b610d3f8161131a565b50565b60007f01ffc9a7000000000000000000000000000000000000000000000000000000007bffffffffffffffffffffffffffffffffffffffffffffffffffffffff1916827bffffffffffffffffffffffffffffffffffffffffffffffffffffffff1916149050919050565b610db4610e3d565b73ffffffffffffffffffffffffffffffffffffffff16610dd2610ab8565b73ffffffffffffffffffffffffffffffffffffffff1614610e28576040517f08c379a0000000000000000000000000000000000000000000000000000000008152600401610e1f90612c88565b60405180910390fd5b565b8060039081610e399190612e3f565b5050565b600033905090565b8151835114610e89576040517f08c379a0000000000000000000000000000000000000000000000000000000008152600401610e8090612f83565b60405180910390fd5b600073ffffffffffffffffffffffffffffffffffffffff168473ffffffffffffffffffffffffffffffffffffffff1603610ef8576040517f08c379a0000000000000000000000000000000000000000000000000000000008152600401610eef90613015565b60405180910390fd5b6000610f02610e3d565b9050610f128187878787876117fb565b60005b84518110156110c6576000858281518110610f3357610f32612b04565b5b602002602001015190506000858381518110610f5257610f51612b04565b5b6020026020010151905060006001600084815260200190815260200160002060008b73ffffffffffffffffffffffffffffffffffffffff1673ffffffffffffffffffffffffffffffffffffffff16815260200190815260200160002054905081811015610ff4576040517f08c379a0000000000000000000000000000000000000000000000000000000008152600401610feb906130a7565b60405180910390fd5b8181036001600085815260200190815260200160002060008c73ffffffffffffffffffffffffffffffffffffffff1673ffffffffffffffffffffffffffffffffffffffff16815260200190815260200160002081905550816001600085815260200190815260200160002060008b73ffffffffffffffffffffffffffffffffffffffff1673ffffffffffffffffffffffffffffffffffffffff16815260200190815260200160002060008282546110ab91906130c7565b92505081905550505050806110bf90612b62565b9050610f15565b508473ffffffffffffffffffffffffffffffffffffffff168673ffffffffffffffffffffffffffffffffffffffff168273ffffffffffffffffffffffffffffffffffffffff167f4a39dc06d4c0dbc64b70af90fd698a233a518aa5d07e595d983b8c0526c8f7fb878760405161113d9291906130fb565b60405180910390a4611153818787878787611803565b61116181878787878761180b565b505050505050565b600073ffffffffffffffffffffffffffffffffffffffff168473ffffffffffffffffffffffffffffffffffffffff16036111d8576040517f08c379a00000000000000000000000000000000000000000000000000000000081526004016111cf906131a4565b60405180910390fd5b60006111e2610e3d565b905060006111ef856119e2565b905060006111fc856119e2565b905061120d836000898585896117fb565b846001600088815260200190815260200160002060008973ffffffffffffffffffffffffffffffffffffffff1673ffffffffffffffffffffffffffffffffffffffff168152602001908152602001600020600082825461126d91906130c7565b925050819055508673ffffffffffffffffffffffffffffffffffffffff16600073ffffffffffffffffffffffffffffffffffffffff168473ffffffffffffffffffffffffffffffffffffffff167fc3d58168c5ae7397731d063d5bbf3d657854427343f4c083240f7aacaa2d0f6289896040516112eb9291906131c4565b60405180910390a461130283600089858589611803565b61131183600089898989611a5c565b50505050505050565b60008060009054906101000a900473ffffffffffffffffffffffffffffffffffffffff169050816000806101000a81548173ffffffffffffffffffffffffffffffffffffffff021916908373ffffffffffffffffffffffffffffffffffffffff1602179055508173ffffffffffffffffffffffffffffffffffffffff168173ffffffffffffffffffffffffffffffffffffffff167f8be0079c531659141344cd1fd0a4f28419497f9722a3daafe3b4186f6b6457e060405160405180910390a35050565b80600490816113ed9190612e3f565b5050565b8173ffffffffffffffffffffffffffffffffffffffff168373ffffffffffffffffffffffffffffffffffffffff160361145f576040517f08c379a00000000000000000000000000000000000000000000000000000000081526004016114569061325f565b60405180910390fd5b80600260008573ffffffffffffffffffffffffffffffffffffffff1673ffffffffffffffffffffffffffffffffffffffff16815260200190815260200160002060008473ffffffffffffffffffffffffffffffffffffffff1673ffffffffffffffffffffffffffffffffffffffff16815260200190815260200160002060006101000a81548160ff0219169083151502179055508173ffffffffffffffffffffffffffffffffffffffff168373ffffffffffffffffffffffffffffffffffffffff167f17307eab39ab6107e8899845ad3d59bd9653f200f220920489ca2b5937696c31836040516115509190611e08565b60405180910390a3505050565b600073ffffffffffffffffffffffffffffffffffffffff168473ffffffffffffffffffffffffffffffffffffffff16036115cc576040517f08c379a00000000000000000000000000000000000000000000000000000000081526004016115c390613015565b60405180910390fd5b60006115d6610e3d565b905060006115e3856119e2565b905060006115f0856119e2565b90506116008389898585896117fb565b60006001600088815260200190815260200160002060008a73ffffffffffffffffffffffffffffffffffffffff1673ffffffffffffffffffffffffffffffffffffffff16815260200190815260200160002054905085811015611698576040517f08c379a000000000000000000000000000000000000000000000000000000000815260040161168f906130a7565b60405180910390fd5b8581036001600089815260200190815260200160002060008b73ffffffffffffffffffffffffffffffffffffffff1673ffffffffffffffffffffffffffffffffffffffff16815260200190815260200160002081905550856001600089815260200190815260200160002060008a73ffffffffffffffffffffffffffffffffffffffff1673ffffffffffffffffffffffffffffffffffffffff168152602001908152602001600020600082825461174f91906130c7565b925050819055508773ffffffffffffffffffffffffffffffffffffffff168973ffffffffffffffffffffffffffffffffffffffff168573ffffffffffffffffffffffffffffffffffffffff167fc3d58168c5ae7397731d063d5bbf3d657854427343f4c083240f7aacaa2d0f628a8a6040516117cc9291906131c4565b60405180910390a46117e2848a8a86868a611803565b6117f0848a8a8a8a8a611a5c565b505050505050505050565b505050505050565b505050505050565b61182a8473ffffffffffffffffffffffffffffffffffffffff16611c33565b156119da578373ffffffffffffffffffffffffffffffffffffffff1663bc197c8187878686866040518663ffffffff1660e01b81526004016118709594939291906132d4565b6020604051808303816000875af19250505080156118ac57506040513d601f19601f820116820180604052508101906118a99190613351565b60015b611951576118b861338b565b806308c379a00361191457506118cc6133ad565b806118d75750611916565b806040517f08c379a000000000000000000000000000000000000000000000000000000000815260040161190b919061205e565b60405180910390fd5b505b6040517f08c379a0000000000000000000000000000000000000000000000000000000008152600401611948906134af565b60405180910390fd5b63bc197c8160e01b7bffffffffffffffffffffffffffffffffffffffffffffffffffffffff1916817bffffffffffffffffffffffffffffffffffffffffffffffffffffffff1916146119d8576040517f08c379a00000000000000000000000000000000000000000000000000000000081526004016119cf90613541565b60405180910390fd5b505b505050505050565b60606000600167ffffffffffffffff811115611a0157611a00611e3e565b5b604051908082528060200260200182016040528015611a2f5781602001602082028036833780820191505090505b5090508281600081518110611a4757611a46612b04565b5b60200260200101818152505080915050919050565b611a7b8473ffffffffffffffffffffffffffffffffffffffff16611c33565b15611c2b578373ffffffffffffffffffffffffffffffffffffffff1663f23a6e6187878686866040518663ffffffff1660e01b8152600401611ac1959493929190613561565b6020604051808303816000875af1925050508015611afd57506040513d601f19601f82011682018060405250810190611afa9190613351565b60015b611ba257611b0961338b565b806308c379a003611b655750611b1d6133ad565b80611b285750611b67565b806040517f08c379a0000000000000000000000000000000000000000000000000000000008152600401611b5c919061205e565b60405180910390fd5b505b6040517f08c379a0000000000000000000000000000000000000000000000000000000008152600401611b99906134af565b60405180910390fd5b63f23a6e6160e01b7bffffffffffffffffffffffffffffffffffffffffffffffffffffffff1916817bffffffffffffffffffffffffffffffffffffffffffffffffffffffff191614611c29576040517f08c379a0000000000000000000000000000000000000000000000000000000008152600401611c2090613541565b60405180910390fd5b505b505050505050565b6000808273ffffffffffffffffffffffffffffffffffffffff163b119050919050565b6000604051905090565b600080fd5b600080fd5b600073ffffffffffffffffffffffffffffffffffffffff82169050919050565b6000611c9582611c6a565b9050919050565b611ca581611c8a565b8114611cb057600080fd5b50565b600081359050611cc281611c9c565b92915050565b6000819050919050565b611cdb81611cc8565b8114611ce657600080fd5b50565b600081359050611cf881611cd2565b92915050565b60008060408385031215611d1557611d14611c60565b5b6000611d2385828601611cb3565b9250506020611d3485828601611ce9565b9150509250929050565b611d4781611cc8565b82525050565b6000602082019050611d626000830184611d3e565b92915050565b60007fffffffff0000000000000000000000000000000000000000000000000000000082169050919050565b611d9d81611d68565b8114611da857600080fd5b50565b600081359050611dba81611d94565b92915050565b600060208284031215611dd657611dd5611c60565b5b6000611de484828501611dab565b91505092915050565b60008115159050919050565b611e0281611ded565b82525050565b6000602082019050611e1d6000830184611df9565b92915050565b600080fd5b600080fd5b6000601f19601f8301169050919050565b7f4e487b7100000000000000000000000000000000000000000000000000000000600052604160045260246000fd5b611e7682611e2d565b810181811067ffffffffffffffff82111715611e9557611e94611e3e565b5b80604052505050565b6000611ea8611c56565b9050611eb48282611e6d565b919050565b600067ffffffffffffffff821115611ed457611ed3611e3e565b5b611edd82611e2d565b9050602081019050919050565b82818337600083830152505050565b6000611f0c611f0784611eb9565b611e9e565b905082815260208101848484011115611f2857611f27611e28565b5b611f33848285611eea565b509392505050565b600082601f830112611f5057611f4f611e23565b5b8135611f60848260208601611ef9565b91505092915050565b600060208284031215611f7f57611f7e611c60565b5b600082013567ffffffffffffffff811115611f9d57611f9c611c65565b5b611fa984828501611f3b565b91505092915050565b600060208284031215611fc857611fc7611c60565b5b6000611fd684828501611ce9565b91505092915050565b600081519050919050565b600082825260208201905092915050565b60005b83811015612019578082015181840152602081019050611ffe565b60008484015250505050565b600061203082611fdf565b61203a8185611fea565b935061204a818560208601611ffb565b61205381611e2d565b840191505092915050565b600060208201905081810360008301526120788184612025565b905092915050565b600067ffffffffffffffff82111561209b5761209a611e3e565b5b602082029050602081019050919050565b600080fd5b60006120c46120bf84612080565b611e9e565b905080838252602082019050602084028301858111156120e7576120e66120ac565b5b835b8181101561211057806120fc8882611ce9565b8452602084019350506020810190506120e9565b5050509392505050565b600082601f83011261212f5761212e611e23565b5b813561213f8482602086016120b1565b91505092915050565b600067ffffffffffffffff82111561216357612162611e3e565b5b61216c82611e2d565b9050602081019050919050565b600061218c61218784612148565b611e9e565b9050828152602081018484840111156121a8576121a7611e28565b5b6121b3848285611eea565b509392505050565b600082601f8301126121d0576121cf611e23565b5b81356121e0848260208601612179565b91505092915050565b600080600080600060a0868803121561220557612204611c60565b5b600061221388828901611cb3565b955050602061222488828901611cb3565b945050604086013567ffffffffffffffff81111561224557612244611c65565b5b6122518882890161211a565b935050606086013567ffffffffffffffff81111561227257612271611c65565b5b61227e8882890161211a565b925050608086013567ffffffffffffffff81111561229f5761229e611c65565b5b6122ab888289016121bb565b9150509295509295909350565b6000602082840312156122ce576122cd611c60565b5b60006122dc84828501611cb3565b91505092915050565b600067ffffffffffffffff821115612300576122ff611e3e565b5b602082029050602081019050919050565b600061232461231f846122e5565b611e9e565b90508083825260208201905060208402830185811115612347576123466120ac565b5b835b81811015612370578061235c8882611cb3565b845260208401935050602081019050612349565b5050509392505050565b600082601f83011261238f5761238e611e23565b5b813561239f848260208601612311565b91505092915050565b600080604083850312156123bf576123be611c60565b5b600083013567ffffffffffffffff8111156123dd576123dc611c65565b5b6123e98582860161237a565b925050602083013567ffffffffffffffff81111561240a57612409611c65565b5b6124168582860161211a565b9150509250929050565b600081519050919050565b600082825260208201905092915050565b6000819050602082019050919050565b61245581611cc8565b82525050565b6000612467838361244c565b60208301905092915050565b6000602082019050919050565b600061248b82612420565b612495818561242b565b93506124a08361243c565b8060005b838110156124d15781516124b8888261245b565b97506124c383612473565b9250506001810190506124a4565b5085935050505092915050565b600060208201905081810360008301526124f88184612480565b905092915050565b6000806040838503121561251757612516611c60565b5b600061252585828601611ce9565b925050602061253685828601611cb3565b9150509250929050565b61254981611c8a565b82525050565b60006020820190506125646000830184612540565b92915050565b61257381611ded565b811461257e57600080fd5b50565b6000813590506125908161256a565b92915050565b600080604083850312156125ad576125ac611c60565b5b60006125bb85828601611cb3565b92505060206125cc85828601612581565b9150509250929050565b600080604083850312156125ed576125ec611c60565b5b60006125fb85828601611cb3565b925050602061260c85828601611cb3565b9150509250929050565b600080600080600060a0868803121561263257612631611c60565b5b600061264088828901611cb3565b955050602061265188828901611cb3565b945050604061266288828901611ce9565b935050606061267388828901611ce9565b925050608086013567ffffffffffffffff81111561269457612693611c65565b5b6126a0888289016121bb565b9150509295509295909350565b7f455243313135353a2061646472657373207a65726f206973206e6f742061207660008201527f616c6964206f776e657200000000000000000000000000000000000000000000602082015250565b6000612709602a83611fea565b9150612714826126ad565b604082019050919050565b60006020820190508181036000830152612738816126fc565b9050919050565b7f4e487b7100000000000000000000000000000000000000000000000000000000600052602260045260246000fd5b6000600282049050600182168061278657607f821691505b6020821081036127995761279861273f565b5b50919050565b600081905092915050565b60008190508160005260206000209050919050565b600081546127cc8161276e565b6127d6818661279f565b945060018216600081146127f1576001811461280657612839565b60ff1983168652811515820286019350612839565b61280f856127aa565b60005b8381101561283157815481890152600182019150602081019050612812565b838801955050505b50505092915050565b6000819050919050565b61285d61285882611cc8565b612842565b82525050565b7f2e6a736f6e000000000000000000000000000000000000000000000000000000600082015250565b600061289960058361279f565b91506128a482612863565b600582019050919050565b60006128bb82856127bf565b91506128c7828461284c565b6020820191506128d68261288c565b91508190509392505050565b7f455243313135353a2063616c6c6572206973206e6f7420746f6b656e206f776e60008201527f6572206f7220617070726f766564000000000000000000000000000000000000602082015250565b600061293e602e83611fea565b9150612949826128e2565b604082019050919050565b6000602082019050818103600083015261296d81612931565b9050919050565b7f4f6e6c79206d696e746572206164647265737320697320616c6c6f776564207460008201527f6f206d696e740000000000000000000000000000000000000000000000000000602082015250565b60006129d0602683611fea565b91506129db82612974565b604082019050919050565b600060208201905081810360008301526129ff816129c3565b9050919050565b7f4d6178696d756d203120746f6b656e2070657220616464726573730000000000600082015250565b6000612a3c601b83611fea565b9150612a4782612a06565b602082019050919050565b60006020820190508181036000830152612a6b81612a2f565b9050919050565b7f455243313135353a206163636f756e747320616e6420696473206c656e67746860008201527f206d69736d617463680000000000000000000000000000000000000000000000602082015250565b6000612ace602983611fea565b9150612ad982612a72565b604082019050919050565b60006020820190508181036000830152612afd81612ac1565b9050919050565b7f4e487b7100000000000000000000000000000000000000000000000000000000600052603260045260246000fd5b7f4e487b7100000000000000000000000000000000000000000000000000000000600052601160045260246000fd5b6000612b6d82611cc8565b91507fffffffffffffffffffffffffffffffffffffffffffffffffffffffffffffffff8203612b9f57612b9e612b33565b5b600182019050919050565b7f4f776e61626c653a206e6577206f776e657220697320746865207a65726f206160008201527f6464726573730000000000000000000000000000000000000000000000000000602082015250565b6000612c06602683611fea565b9150612c1182612baa565b604082019050919050565b60006020820190508181036000830152612c3581612bf9565b9050919050565b7f4f776e61626c653a2063616c6c6572206973206e6f7420746865206f776e6572600082015250565b6000612c72602083611fea565b9150612c7d82612c3c565b602082019050919050565b60006020820190508181036000830152612ca181612c65565b9050919050565b60006020601f8301049050919050565b600082821b905092915050565b600060088302612cf57fffffffffffffffffffffffffffffffffffffffffffffffffffffffffffffffff82612cb8565b612cff8683612cb8565b95508019841693508086168417925050509392505050565b6000819050919050565b6000612d3c612d37612d3284611cc8565b612d17565b611cc8565b9050919050565b6000819050919050565b612d5683612d21565b612d6a612d6282612d43565b848454612cc5565b825550505050565b600090565b612d7f612d72565b612d8a818484612d4d565b505050565b5b81811015612dae57612da3600082612d77565b600181019050612d90565b5050565b601f821115612df357612dc4816127aa565b612dcd84612ca8565b81016020851015612ddc578190505b612df0612de885612ca8565b830182612d8f565b50505b505050565b600082821c905092915050565b6000612e1660001984600802612df8565b1980831691505092915050565b6000612e2f8383612e05565b9150826002028217905092915050565b612e4882611fdf565b67ffffffffffffffff811115612e6157612e60611e3e565b5b612e6b825461276e565b612e76828285612db2565b600060209050601f831160018114612ea95760008415612e97578287015190505b612ea18582612e23565b865550612f09565b601f198416612eb7866127aa565b60005b82811015612edf57848901518255600182019150602085019450602081019050612eba565b86831015612efc5784890151612ef8601f891682612e05565b8355505b6001600288020188555050505b505050505050565b7f455243313135353a2069647320616e6420616d6f756e7473206c656e6774682060008201527f6d69736d61746368000000000000000000000000000000000000000000000000602082015250565b6000612f6d602883611fea565b9150612f7882612f11565b604082019050919050565b60006020820190508181036000830152612f9c81612f60565b9050919050565b7f455243313135353a207472616e7366657220746f20746865207a65726f20616460008201527f6472657373000000000000000000000000000000000000000000000000000000602082015250565b6000612fff602583611fea565b915061300a82612fa3565b604082019050919050565b6000602082019050818103600083015261302e81612ff2565b9050919050565b7f455243313135353a20696e73756666696369656e742062616c616e636520666f60008201527f72207472616e7366657200000000000000000000000000000000000000000000602082015250565b6000613091602a83611fea565b915061309c82613035565b604082019050919050565b600060208201905081810360008301526130c081613084565b9050919050565b60006130d282611cc8565b91506130dd83611cc8565b92508282019050808211156130f5576130f4612b33565b5b92915050565b600060408201905081810360008301526131158185612480565b905081810360208301526131298184612480565b90509392505050565b7f455243313135353a206d696e7420746f20746865207a65726f2061646472657360008201527f7300000000000000000000000000000000000000000000000000000000000000602082015250565b600061318e602183611fea565b915061319982613132565b604082019050919050565b600060208201905081810360008301526131bd81613181565b9050919050565b60006040820190506131d96000830185611d3e565b6131e66020830184611d3e565b9392505050565b7f455243313135353a2073657474696e6720617070726f76616c2073746174757360008201527f20666f722073656c660000000000000000000000000000000000000000000000602082015250565b6000613249602983611fea565b9150613254826131ed565b604082019050919050565b600060208201905081810360008301526132788161323c565b9050919050565b600081519050919050565b600082825260208201905092915050565b60006132a68261327f565b6132b0818561328a565b93506132c0818560208601611ffb565b6132c981611e2d565b840191505092915050565b600060a0820190506132e96000830188612540565b6132f66020830187612540565b81810360408301526133088186612480565b9050818103606083015261331c8185612480565b90508181036080830152613330818461329b565b90509695505050505050565b60008151905061334b81611d94565b92915050565b60006020828403121561336757613366611c60565b5b60006133758482850161333c565b91505092915050565b60008160e01c9050919050565b600060033d11156133aa5760046000803e6133a760005161337e565b90505b90565b600060443d1061343a576133bf611c56565b60043d036004823e80513d602482011167ffffffffffffffff821117156133e757505061343a565b808201805167ffffffffffffffff811115613405575050505061343a565b80602083010160043d03850181111561342257505050505061343a565b61343182602001850186611e6d565b82955050505050505b90565b7f455243313135353a207472616e7366657220746f206e6f6e2d4552433131353560008201527f526563656976657220696d706c656d656e746572000000000000000000000000602082015250565b6000613499603483611fea565b91506134a48261343d565b604082019050919050565b600060208201905081810360008301526134c88161348c565b9050919050565b7f455243313135353a204552433131353552656365697665722072656a6563746560008201527f6420746f6b656e73000000000000000000000000000000000000000000000000602082015250565b600061352b602883611fea565b9150613536826134cf565b604082019050919050565b6000602082019050818103600083015261355a8161351e565b9050919050565b600060a0820190506135766000830188612540565b6135836020830187612540565b6135906040830186611d3e565b61359d6060830185611d3e565b81810360808301526135af818461329b565b9050969550505050505056fea2646970667358221220e3df6f2e5d86982d803f47e8183cebc06ca9e0c4459a52b028835396199abc0d64736f6c63430008130033",
  "linkReferences": {},
  "deployedLinkReferences": {}
}