{
  "_format": "hh-sol-artifact-1",
  "contractName": "PuzzleNFT",
  "sourceName": "contracts/PuzzleNFT.sol",
  "abi": [
    {
      "inputs": [],
      "stateMutability": "nonpayable",
      "type": "constructor"
    },
    {
      "anonymous": false,
      "inputs": [
        {
          "indexed": true,
          "internalType": "address",
          "name": "account",
          "type": "address"
        },
        {
          "indexed": true,
          "internalType": "address",
          "name": "operator",
          "type": "address"
        },
        {
          "indexed": false,
          "internalType": "bool",
          "name": "approved",
          "type": "bool"
        }
      ],
      "name": "ApprovalForAll",
      "type": "event"
    },
    {
      "anonymous": false,
      "inputs": [
        {
          "indexed": true,
          "internalType": "address",
          "name": "operator",
          "type": "address"
        },
        {
          "indexed": true,
          "internalType": "address",
          "name": "from",
          "type": "address"
        },
        {
          "indexed": true,
          "internalType": "address",
          "name": "to",
          "type": "address"
        },
        {
          "indexed": false,
          "internalType": "uint256[]",
          "name": "ids",
          "type": "uint256[]"
        },
        {
          "indexed": false,
          "internalType": "uint256[]",
          "name": "values",
          "type": "uint256[]"
        }
      ],
      "name": "TransferBatch",
      "type": "event"
    },
    {
      "anonymous": false,
      "inputs": [
        {
          "indexed": true,
          "internalType": "address",
          "name": "operator",
          "type": "address"
        },
        {
          "indexed": true,
          "internalType": "address",
          "name": "from",
          "type": "address"
        },
        {
          "indexed": true,
          "internalType": "address",
          "name": "to",
          "type": "address"
        },
        {
          "indexed": false,
          "internalType": "uint256",
          "name": "id",
          "type": "uint256"
        },
        {
          "indexed": false,
          "internalType": "uint256",
          "name": "value",
          "type": "uint256"
        }
      ],
      "name": "TransferSingle",
      "type": "event"
    },
    {
      "anonymous": false,
      "inputs": [
        {
          "indexed": false,
          "internalType": "string",
          "name": "value",
          "type": "string"
        },
        {
          "indexed": true,
          "internalType": "uint256",
          "name": "id",
          "type": "uint256"
        }
      ],
      "name": "URI",
      "type": "event"
    },
    {
      "inputs": [],
      "name": "Controller",
      "outputs": [
        {
          "internalType": "uint256",
          "name": "",
          "type": "uint256"
        }
      ],
      "stateMutability": "view",
      "type": "function"
    },
    {
      "inputs": [
        {
          "internalType": "address",
          "name": "account",
          "type": "address"
        },
        {
          "internalType": "uint256",
          "name": "id",
          "type": "uint256"
        }
      ],
      "name": "balanceOf",
      "outputs": [
        {
          "internalType": "uint256",
          "name": "",
          "type": "uint256"
        }
      ],
      "stateMutability": "view",
      "type": "function"
    },
    {
      "inputs": [
        {
          "internalType": "address[]",
          "name": "accounts",
          "type": "address[]"
        },
        {
          "internalType": "uint256[]",
          "name": "ids",
          "type": "uint256[]"
        }
      ],
      "name": "balanceOfBatch",
      "outputs": [
        {
          "internalType": "uint256[]",
          "name": "",
          "type": "uint256[]"
        }
      ],
      "stateMutability": "view",
      "type": "function"
    },
    {
      "inputs": [
        {
          "internalType": "bytes",
          "name": "adminSig",
          "type": "bytes"
        }
      ],
      "name": "getTokenId",
      "outputs": [
        {
          "internalType": "uint256",
          "name": "",
          "type": "uint256"
        }
      ],
      "stateMutability": "pure",
      "type": "function"
    },
    {
      "inputs": [
        {
          "internalType": "address",
          "name": "account",
          "type": "address"
        },
        {
          "internalType": "address",
          "name": "operator",
          "type": "address"
        }
      ],
      "name": "isApprovedForAll",
      "outputs": [
        {
          "internalType": "bool",
          "name": "",
          "type": "bool"
        }
      ],
      "stateMutability": "view",
      "type": "function"
    },
    {
      "inputs": [
        {
          "internalType": "bytes",
          "name": "adminSig",
          "type": "bytes"
        },
        {
          "internalType": "bytes",
          "name": "data",
          "type": "bytes"
        }
      ],
      "name": "mint",
      "outputs": [],
      "stateMutability": "nonpayable",
      "type": "function"
    },
    {
      "inputs": [
        {
          "internalType": "uint256",
          "name": "",
          "type": "uint256"
        },
        {
          "internalType": "address",
          "name": "",
          "type": "address"
        }
      ],
      "name": "minted",
      "outputs": [
        {
          "internalType": "bool",
          "name": "",
          "type": "bool"
        }
      ],
      "stateMutability": "view",
      "type": "function"
    },
    {
      "inputs": [
        {
          "internalType": "address",
          "name": "from",
          "type": "address"
        },
        {
          "internalType": "address",
          "name": "to",
          "type": "address"
        },
        {
          "internalType": "uint256[]",
          "name": "ids",
          "type": "uint256[]"
        },
        {
          "internalType": "uint256[]",
          "name": "amounts",
          "type": "uint256[]"
        },
        {
          "internalType": "bytes",
          "name": "data",
          "type": "bytes"
        }
      ],
      "name": "safeBatchTransferFrom",
      "outputs": [],
      "stateMutability": "nonpayable",
      "type": "function"
    },
    {
      "inputs": [
        {
          "internalType": "address",
          "name": "from",
          "type": "address"
        },
        {
          "internalType": "address",
          "name": "to",
          "type": "address"
        },
        {
          "internalType": "uint256",
          "name": "id",
          "type": "uint256"
        },
        {
          "internalType": "uint256",
          "name": "amount",
          "type": "uint256"
        },
        {
          "internalType": "bytes",
          "name": "data",
          "type": "bytes"
        }
      ],
      "name": "safeTransferFrom",
      "outputs": [],
      "stateMutability": "nonpayable",
      "type": "function"
    },
    {
      "inputs": [
        {
          "internalType": "address",
          "name": "operator",
          "type": "address"
        },
        {
          "internalType": "bool",
          "name": "approved",
          "type": "bool"
        }
      ],
      "name": "setApprovalForAll",
      "outputs": [],
      "stateMutability": "nonpayable",
      "type": "function"
    },
    {
      "inputs": [
        {
          "internalType": "bytes4",
          "name": "interfaceId",
          "type": "bytes4"
        }
      ],
      "name": "supportsInterface",
      "outputs": [
        {
          "internalType": "bool",
          "name": "",
          "type": "bool"
        }
      ],
      "stateMutability": "view",
      "type": "function"
    },
    {
      "inputs": [
        {
          "internalType": "uint256",
          "name": "",
          "type": "uint256"
        }
      ],
      "name": "uri",
      "outputs": [
        {
          "internalType": "string",
          "name": "",
          "type": "string"
        }
      ],
      "stateMutability": "view",
      "type": "function"
    }
  ],
  "bytecode": "0x60806040523480156200001157600080fd5b506040518060800160405280605a8152602001620039b3605a91396200003d816200007260201b60201c565b506200006c336001806040518060600160405280602a815260200162003989602a91396200008760201b60201c565b62000e7d565b80600290816200008391906200079d565b5050565b600073ffffffffffffffffffffffffffffffffffffffff168473ffffffffffffffffffffffffffffffffffffffff1603620000f9576040517f08c379a0000000000000000000000000000000000000000000000000000000008152600401620000f0906200090b565b60405180910390fd5b60006200010b6200026e60201b60201c565b9050600062000120856200027660201b60201c565b9050600062000135856200027660201b60201c565b90506200014e83600089858589620002f760201b60201c565b8460008088815260200190815260200160002060008973ffffffffffffffffffffffffffffffffffffffff1673ffffffffffffffffffffffffffffffffffffffff1681526020019081526020016000206000828254620001af91906200095c565b925050819055508673ffffffffffffffffffffffffffffffffffffffff16600073ffffffffffffffffffffffffffffffffffffffff168473ffffffffffffffffffffffffffffffffffffffff167fc3d58168c5ae7397731d063d5bbf3d657854427343f4c083240f7aacaa2d0f6289896040516200022f929190620009a8565b60405180910390a46200024e83600089858589620002ff60201b60201c565b62000265836000898989896200030760201b60201c565b50505050505050565b600033905090565b60606000600167ffffffffffffffff8111156200029857620002976200052e565b5b604051908082528060200260200182016040528015620002c75781602001602082028036833780820191505090505b5090508281600081518110620002e257620002e1620009d5565b5b60200260200101818152505080915050919050565b505050505050565b505050505050565b620003338473ffffffffffffffffffffffffffffffffffffffff166200050060201b620008fa1760201c565b15620004f8578373ffffffffffffffffffffffffffffffffffffffff1663f23a6e6187878686866040518663ffffffff1660e01b81526004016200037c95949392919062000ae3565b6020604051808303816000875af1925050508015620003bb57506040513d601f19601f82011682018060405250810190620003b8919062000bb3565b60015b6200046c57620003ca62000bf2565b806308c379a0036200042d5750620003e162000c4d565b80620003ee57506200042f565b806040517f08c379a000000000000000000000000000000000000000000000000000000000815260040162000424919062000d29565b60405180910390fd5b505b6040517f08c379a0000000000000000000000000000000000000000000000000000000008152600401620004639062000dc3565b60405180910390fd5b63f23a6e6160e01b7bffffffffffffffffffffffffffffffffffffffffffffffffffffffff1916817bffffffffffffffffffffffffffffffffffffffffffffffffffffffff191614620004f6576040517f08c379a0000000000000000000000000000000000000000000000000000000008152600401620004ed9062000e5b565b60405180910390fd5b505b505050505050565b6000808273ffffffffffffffffffffffffffffffffffffffff163b119050919050565b600081519050919050565b7f4e487b7100000000000000000000000000000000000000000000000000000000600052604160045260246000fd5b7f4e487b7100000000000000000000000000000000000000000000000000000000600052602260045260246000fd5b60006002820490506001821680620005a557607f821691505b602082108103620005bb57620005ba6200055d565b5b50919050565b60008190508160005260206000209050919050565b60006020601f8301049050919050565b600082821b905092915050565b600060088302620006257fffffffffffffffffffffffffffffffffffffffffffffffffffffffffffffffff82620005e6565b620006318683620005e6565b95508019841693508086168417925050509392505050565b6000819050919050565b6000819050919050565b60006200067e62000678620006728462000649565b62000653565b62000649565b9050919050565b6000819050919050565b6200069a836200065d565b620006b2620006a98262000685565b848454620005f3565b825550505050565b600090565b620006c9620006ba565b620006d68184846200068f565b505050565b5b81811015620006fe57620006f2600082620006bf565b600181019050620006dc565b5050565b601f8211156200074d576200071781620005c1565b6200072284620005d6565b8101602085101562000732578190505b6200074a6200074185620005d6565b830182620006db565b50505b505050565b600082821c905092915050565b6000620007726000198460080262000752565b1980831691505092915050565b60006200078d83836200075f565b9150826002028217905092915050565b620007a88262000523565b67ffffffffffffffff811115620007c457620007c36200052e565b5b620007d082546200058c565b620007dd82828562000702565b600060209050601f83116001811462000815576000841562000800578287015190505b6200080c85826200077f565b8655506200087c565b601f1984166200082586620005c1565b60005b828110156200084f5784890151825560018201915060208501945060208101905062000828565b868310156200086f57848901516200086b601f8916826200075f565b8355505b6001600288020188555050505b505050505050565b600082825260208201905092915050565b7f455243313135353a206d696e7420746f20746865207a65726f2061646472657360008201527f7300000000000000000000000000000000000000000000000000000000000000602082015250565b6000620008f360218362000884565b9150620009008262000895565b604082019050919050565b600060208201905081810360008301526200092681620008e4565b9050919050565b7f4e487b7100000000000000000000000000000000000000000000000000000000600052601160045260246000fd5b6000620009698262000649565b9150620009768362000649565b92508282019050808211156200099157620009906200092d565b5b92915050565b620009a28162000649565b82525050565b6000604082019050620009bf600083018562000997565b620009ce602083018462000997565b9392505050565b7f4e487b7100000000000000000000000000000000000000000000000000000000600052603260045260246000fd5b600073ffffffffffffffffffffffffffffffffffffffff82169050919050565b600062000a318262000a04565b9050919050565b62000a438162000a24565b82525050565b600081519050919050565b600082825260208201905092915050565b60005b8381101562000a8557808201518184015260208101905062000a68565b60008484015250505050565b6000601f19601f8301169050919050565b600062000aaf8262000a49565b62000abb818562000a54565b935062000acd81856020860162000a65565b62000ad88162000a91565b840191505092915050565b600060a08201905062000afa600083018862000a38565b62000b09602083018762000a38565b62000b18604083018662000997565b62000b27606083018562000997565b818103608083015262000b3b818462000aa2565b90509695505050505050565b6000604051905090565b600080fd5b60007fffffffff0000000000000000000000000000000000000000000000000000000082169050919050565b62000b8d8162000b56565b811462000b9957600080fd5b50565b60008151905062000bad8162000b82565b92915050565b60006020828403121562000bcc5762000bcb62000b51565b5b600062000bdc8482850162000b9c565b91505092915050565b60008160e01c9050919050565b600060033d111562000c145760046000803e62000c1160005162000be5565b90505b90565b62000c228262000a91565b810181811067ffffffffffffffff8211171562000c445762000c436200052e565b5b80604052505050565b600060443d1062000ce55762000c6262000b47565b60043d036004823e80513d602482011167ffffffffffffffff8211171562000c8c57505062000ce5565b808201805167ffffffffffffffff81111562000cac575050505062000ce5565b80602083010160043d03850181111562000ccb57505050505062000ce5565b62000cdc8260200185018662000c17565b82955050505050505b90565b600062000cf58262000523565b62000d01818562000884565b935062000d1381856020860162000a65565b62000d1e8162000a91565b840191505092915050565b6000602082019050818103600083015262000d45818462000ce8565b905092915050565b7f455243313135353a207472616e7366657220746f206e6f6e2d4552433131353560008201527f526563656976657220696d706c656d656e746572000000000000000000000000602082015250565b600062000dab60348362000884565b915062000db88262000d4d565b604082019050919050565b6000602082019050818103600083015262000dde8162000d9c565b9050919050565b7f455243313135353a204552433131353552656365697665722072656a6563746560008201527f6420746f6b656e73000000000000000000000000000000000000000000000000602082015250565b600062000e4360288362000884565b915062000e508262000de5565b604082019050919050565b6000602082019050818103600083015262000e768162000e34565b9050919050565b612afc8062000e8d6000396000f3fe608060405234801561001057600080fd5b50600436106100b35760003560e01c80636887a0e5116100715780636887a0e5146101b25780636bc63893146101e2578063a22cb465146101fe578063c81eccda1461021a578063e985e9c51461024a578063f242432a1461027a576100b3565b8062fdd58e146100b857806301ffc9a7146100e85780630e89341c146101185780632eb2c2d6146101485780634e1273f4146101645780636467935614610194575b600080fd5b6100d260048036038101906100cd9190611753565b610296565b6040516100df91906117a2565b60405180910390f35b61010260048036038101906100fd9190611815565b61035e565b60405161010f919061185d565b60405180910390f35b610132600480360381019061012d9190611878565b610440565b60405161013f9190611935565b60405180910390f35b610162600480360381019061015d9190611b54565b6104d4565b005b61017e60048036038101906101799190611ce6565b610575565b60405161018b9190611e1c565b60405180910390f35b61019c61068e565b6040516101a991906117a2565b60405180910390f35b6101cc60048036038101906101c79190611e3e565b610693565b6040516101d9919061185d565b60405180910390f35b6101fc60048036038101906101f79190611ed9565b6106c2565b005b61021860048036038101906102139190611f81565b6107a3565b005b610234600480360381019061022f9190611fc1565b6107b9565b60405161024191906117a2565b60405180910390f35b610264600480360381019061025f919061200e565b6107c5565b604051610271919061185d565b60405180910390f35b610294600480360381019061028f919061204e565b610859565b005b60008073ffffffffffffffffffffffffffffffffffffffff168373ffffffffffffffffffffffffffffffffffffffff1603610306576040517f08c379a00000000000000000000000000000000000000000000000000000000081526004016102fd90612157565b60405180910390fd5b60008083815260200190815260200160002060008473ffffffffffffffffffffffffffffffffffffffff1673ffffffffffffffffffffffffffffffffffffffff16815260200190815260200160002054905092915050565b60007fd9b67a26000000000000000000000000000000000000000000000000000000007bffffffffffffffffffffffffffffffffffffffffffffffffffffffff1916827bffffffffffffffffffffffffffffffffffffffffffffffffffffffff1916148061042957507f0e89341c000000000000000000000000000000000000000000000000000000007bffffffffffffffffffffffffffffffffffffffffffffffffffffffff1916827bffffffffffffffffffffffffffffffffffffffffffffffffffffffff1916145b8061043957506104388261091d565b5b9050919050565b60606002805461044f906121a6565b80601f016020809104026020016040519081016040528092919081815260200182805461047b906121a6565b80156104c85780601f1061049d576101008083540402835291602001916104c8565b820191906000526020600020905b8154815290600101906020018083116104ab57829003601f168201915b50505050509050919050565b6104dc610987565b73ffffffffffffffffffffffffffffffffffffffff168573ffffffffffffffffffffffffffffffffffffffff16148061052257506105218561051c610987565b6107c5565b5b610561576040517f08c379a000000000000000000000000000000000000000000000000000000000815260040161055890612249565b60405180910390fd5b61056e858585858561098f565b5050505050565b606081518351146105bb576040517f08c379a00000000000000000000000000000000000000000000000000000000081526004016105b2906122db565b60405180910390fd5b6000835167ffffffffffffffff8111156105d8576105d761195c565b5b6040519080825280602002602001820160405280156106065781602001602082028036833780820191505090505b50905060005b84518110156106835761065385828151811061062b5761062a6122fb565b5b6020026020010151858381518110610646576106456122fb565b5b6020026020010151610296565b828281518110610666576106656122fb565b5b6020026020010181815250508061067c90612359565b905061060c565b508091505092915050565b600181565b60036020528160005260406000206020528060005260406000206000915091509054906101000a900460ff1681565b6106cc8383610cb0565b61070b576040517f08c379a0000000000000000000000000000000000000000000000000000000008152600401610702906123ed565b60405180910390fd5b600061071784846107b9565b90506001600360008381526020019081526020016000206000610738610987565b73ffffffffffffffffffffffffffffffffffffffff1673ffffffffffffffffffffffffffffffffffffffff16815260200190815260200160002060006101000a81548160ff02191690831515021790555061079d610794610987565b82600185610cbc565b50505050565b6107b56107ae610987565b8383610e6c565b5050565b60006001905092915050565b6000600160008473ffffffffffffffffffffffffffffffffffffffff1673ffffffffffffffffffffffffffffffffffffffff16815260200190815260200160002060008373ffffffffffffffffffffffffffffffffffffffff1673ffffffffffffffffffffffffffffffffffffffff16815260200190815260200160002060009054906101000a900460ff16905092915050565b610861610987565b73ffffffffffffffffffffffffffffffffffffffff168573ffffffffffffffffffffffffffffffffffffffff1614806108a757506108a6856108a1610987565b6107c5565b5b6108e6576040517f08c379a00000000000000000000000000000000000000000000000000000000081526004016108dd90612249565b60405180910390fd5b6108f38585858585610fd8565b5050505050565b6000808273ffffffffffffffffffffffffffffffffffffffff163b119050919050565b60007f01ffc9a7000000000000000000000000000000000000000000000000000000007bffffffffffffffffffffffffffffffffffffffffffffffffffffffff1916827bffffffffffffffffffffffffffffffffffffffffffffffffffffffff1916149050919050565b600033905090565b81518351146109d3576040517f08c379a00000000000000000000000000000000000000000000000000000000081526004016109ca9061247f565b60405180910390fd5b600073ffffffffffffffffffffffffffffffffffffffff168473ffffffffffffffffffffffffffffffffffffffff1603610a42576040517f08c379a0000000000000000000000000000000000000000000000000000000008152600401610a3990612511565b60405180910390fd5b6000610a4c610987565b9050610a5c818787878787611273565b60005b8451811015610c0d576000858281518110610a7d57610a7c6122fb565b5b602002602001015190506000858381518110610a9c57610a9b6122fb565b5b60200260200101519050600080600084815260200190815260200160002060008b73ffffffffffffffffffffffffffffffffffffffff1673ffffffffffffffffffffffffffffffffffffffff16815260200190815260200160002054905081811015610b3d576040517f08c379a0000000000000000000000000000000000000000000000000000000008152600401610b34906125a3565b60405180910390fd5b81810360008085815260200190815260200160002060008c73ffffffffffffffffffffffffffffffffffffffff1673ffffffffffffffffffffffffffffffffffffffff168152602001908152602001600020819055508160008085815260200190815260200160002060008b73ffffffffffffffffffffffffffffffffffffffff1673ffffffffffffffffffffffffffffffffffffffff1681526020019081526020016000206000828254610bf291906125c3565b9250508190555050505080610c0690612359565b9050610a5f565b508473ffffffffffffffffffffffffffffffffffffffff168673ffffffffffffffffffffffffffffffffffffffff168273ffffffffffffffffffffffffffffffffffffffff167f4a39dc06d4c0dbc64b70af90fd698a233a518aa5d07e595d983b8c0526c8f7fb8787604051610c849291906125f7565b60405180910390a4610c9a81878787878761127b565b610ca8818787878787611283565b505050505050565b60006001905092915050565b600073ffffffffffffffffffffffffffffffffffffffff168473ffffffffffffffffffffffffffffffffffffffff1603610d2b576040517f08c379a0000000000000000000000000000000000000000000000000000000008152600401610d22906126a0565b60405180910390fd5b6000610d35610987565b90506000610d428561145a565b90506000610d4f8561145a565b9050610d6083600089858589611273565b8460008088815260200190815260200160002060008973ffffffffffffffffffffffffffffffffffffffff1673ffffffffffffffffffffffffffffffffffffffff1681526020019081526020016000206000828254610dbf91906125c3565b925050819055508673ffffffffffffffffffffffffffffffffffffffff16600073ffffffffffffffffffffffffffffffffffffffff168473ffffffffffffffffffffffffffffffffffffffff167fc3d58168c5ae7397731d063d5bbf3d657854427343f4c083240f7aacaa2d0f628989604051610e3d9291906126c0565b60405180910390a4610e548360008985858961127b565b610e63836000898989896114d4565b50505050505050565b8173ffffffffffffffffffffffffffffffffffffffff168373ffffffffffffffffffffffffffffffffffffffff1603610eda576040517f08c379a0000000000000000000000000000000000000000000000000000000008152600401610ed19061275b565b60405180910390fd5b80600160008573ffffffffffffffffffffffffffffffffffffffff1673ffffffffffffffffffffffffffffffffffffffff16815260200190815260200160002060008473ffffffffffffffffffffffffffffffffffffffff1673ffffffffffffffffffffffffffffffffffffffff16815260200190815260200160002060006101000a81548160ff0219169083151502179055508173ffffffffffffffffffffffffffffffffffffffff168373ffffffffffffffffffffffffffffffffffffffff167f17307eab39ab6107e8899845ad3d59bd9653f200f220920489ca2b5937696c3183604051610fcb919061185d565b60405180910390a3505050565b600073ffffffffffffffffffffffffffffffffffffffff168473ffffffffffffffffffffffffffffffffffffffff1603611047576040517f08c379a000000000000000000000000000000000000000000000000000000000815260040161103e90612511565b60405180910390fd5b6000611051610987565b9050600061105e8561145a565b9050600061106b8561145a565b905061107b838989858589611273565b600080600088815260200190815260200160002060008a73ffffffffffffffffffffffffffffffffffffffff1673ffffffffffffffffffffffffffffffffffffffff16815260200190815260200160002054905085811015611112576040517f08c379a0000000000000000000000000000000000000000000000000000000008152600401611109906125a3565b60405180910390fd5b85810360008089815260200190815260200160002060008b73ffffffffffffffffffffffffffffffffffffffff1673ffffffffffffffffffffffffffffffffffffffff168152602001908152602001600020819055508560008089815260200190815260200160002060008a73ffffffffffffffffffffffffffffffffffffffff1673ffffffffffffffffffffffffffffffffffffffff16815260200190815260200160002060008282546111c791906125c3565b925050819055508773ffffffffffffffffffffffffffffffffffffffff168973ffffffffffffffffffffffffffffffffffffffff168573ffffffffffffffffffffffffffffffffffffffff167fc3d58168c5ae7397731d063d5bbf3d657854427343f4c083240f7aacaa2d0f628a8a6040516112449291906126c0565b60405180910390a461125a848a8a86868a61127b565b611268848a8a8a8a8a6114d4565b505050505050505050565b505050505050565b505050505050565b6112a28473ffffffffffffffffffffffffffffffffffffffff166108fa565b15611452578373ffffffffffffffffffffffffffffffffffffffff1663bc197c8187878686866040518663ffffffff1660e01b81526004016112e89594939291906127df565b6020604051808303816000875af192505050801561132457506040513d601f19601f82011682018060405250810190611321919061285c565b60015b6113c957611330612896565b806308c379a00361138c57506113446128b8565b8061134f575061138e565b806040517f08c379a00000000000000000000000000000000000000000000000000000000081526004016113839190611935565b60405180910390fd5b505b6040517f08c379a00000000000000000000000000000000000000000000000000000000081526004016113c0906129ba565b60405180910390fd5b63bc197c8160e01b7bffffffffffffffffffffffffffffffffffffffffffffffffffffffff1916817bffffffffffffffffffffffffffffffffffffffffffffffffffffffff191614611450576040517f08c379a000000000000000000000000000000000000000000000000000000000815260040161144790612a4c565b60405180910390fd5b505b505050505050565b60606000600167ffffffffffffffff8111156114795761147861195c565b5b6040519080825280602002602001820160405280156114a75781602001602082028036833780820191505090505b50905082816000815181106114bf576114be6122fb565b5b60200260200101818152505080915050919050565b6114f38473ffffffffffffffffffffffffffffffffffffffff166108fa565b156116a3578373ffffffffffffffffffffffffffffffffffffffff1663f23a6e6187878686866040518663ffffffff1660e01b8152600401611539959493929190612a6c565b6020604051808303816000875af192505050801561157557506040513d601f19601f82011682018060405250810190611572919061285c565b60015b61161a57611581612896565b806308c379a0036115dd57506115956128b8565b806115a057506115df565b806040517f08c379a00000000000000000000000000000000000000000000000000000000081526004016115d49190611935565b60405180910390fd5b505b6040517f08c379a0000000000000000000000000000000000000000000000000000000008152600401611611906129ba565b60405180910390fd5b63f23a6e6160e01b7bffffffffffffffffffffffffffffffffffffffffffffffffffffffff1916817bffffffffffffffffffffffffffffffffffffffffffffffffffffffff1916146116a1576040517f08c379a000000000000000000000000000000000000000000000000000000000815260040161169890612a4c565b60405180910390fd5b505b505050505050565b6000604051905090565b600080fd5b600080fd5b600073ffffffffffffffffffffffffffffffffffffffff82169050919050565b60006116ea826116bf565b9050919050565b6116fa816116df565b811461170557600080fd5b50565b600081359050611717816116f1565b92915050565b6000819050919050565b6117308161171d565b811461173b57600080fd5b50565b60008135905061174d81611727565b92915050565b6000806040838503121561176a576117696116b5565b5b600061177885828601611708565b92505060206117898582860161173e565b9150509250929050565b61179c8161171d565b82525050565b60006020820190506117b76000830184611793565b92915050565b60007fffffffff0000000000000000000000000000000000000000000000000000000082169050919050565b6117f2816117bd565b81146117fd57600080fd5b50565b60008135905061180f816117e9565b92915050565b60006020828403121561182b5761182a6116b5565b5b600061183984828501611800565b91505092915050565b60008115159050919050565b61185781611842565b82525050565b6000602082019050611872600083018461184e565b92915050565b60006020828403121561188e5761188d6116b5565b5b600061189c8482850161173e565b91505092915050565b600081519050919050565b600082825260208201905092915050565b60005b838110156118df5780820151818401526020810190506118c4565b60008484015250505050565b6000601f19601f8301169050919050565b6000611907826118a5565b61191181856118b0565b93506119218185602086016118c1565b61192a816118eb565b840191505092915050565b6000602082019050818103600083015261194f81846118fc565b905092915050565b600080fd5b7f4e487b7100000000000000000000000000000000000000000000000000000000600052604160045260246000fd5b611994826118eb565b810181811067ffffffffffffffff821117156119b3576119b261195c565b5b80604052505050565b60006119c66116ab565b90506119d2828261198b565b919050565b600067ffffffffffffffff8211156119f2576119f161195c565b5b602082029050602081019050919050565b600080fd5b6000611a1b611a16846119d7565b6119bc565b90508083825260208201905060208402830185811115611a3e57611a3d611a03565b5b835b81811015611a675780611a53888261173e565b845260208401935050602081019050611a40565b5050509392505050565b600082601f830112611a8657611a85611957565b5b8135611a96848260208601611a08565b91505092915050565b600080fd5b600067ffffffffffffffff821115611abf57611abe61195c565b5b611ac8826118eb565b9050602081019050919050565b82818337600083830152505050565b6000611af7611af284611aa4565b6119bc565b905082815260208101848484011115611b1357611b12611a9f565b5b611b1e848285611ad5565b509392505050565b600082601f830112611b3b57611b3a611957565b5b8135611b4b848260208601611ae4565b91505092915050565b600080600080600060a08688031215611b7057611b6f6116b5565b5b6000611b7e88828901611708565b9550506020611b8f88828901611708565b945050604086013567ffffffffffffffff811115611bb057611baf6116ba565b5b611bbc88828901611a71565b935050606086013567ffffffffffffffff811115611bdd57611bdc6116ba565b5b611be988828901611a71565b925050608086013567ffffffffffffffff811115611c0a57611c096116ba565b5b611c1688828901611b26565b9150509295509295909350565b600067ffffffffffffffff821115611c3e57611c3d61195c565b5b602082029050602081019050919050565b6000611c62611c5d84611c23565b6119bc565b90508083825260208201905060208402830185811115611c8557611c84611a03565b5b835b81811015611cae5780611c9a8882611708565b845260208401935050602081019050611c87565b5050509392505050565b600082601f830112611ccd57611ccc611957565b5b8135611cdd848260208601611c4f565b91505092915050565b60008060408385031215611cfd57611cfc6116b5565b5b600083013567ffffffffffffffff811115611d1b57611d1a6116ba565b5b611d2785828601611cb8565b925050602083013567ffffffffffffffff811115611d4857611d476116ba565b5b611d5485828601611a71565b9150509250929050565b600081519050919050565b600082825260208201905092915050565b6000819050602082019050919050565b611d938161171d565b82525050565b6000611da58383611d8a565b60208301905092915050565b6000602082019050919050565b6000611dc982611d5e565b611dd38185611d69565b9350611dde83611d7a565b8060005b83811015611e0f578151611df68882611d99565b9750611e0183611db1565b925050600181019050611de2565b5085935050505092915050565b60006020820190508181036000830152611e368184611dbe565b905092915050565b60008060408385031215611e5557611e546116b5565b5b6000611e638582860161173e565b9250506020611e7485828601611708565b9150509250929050565b600080fd5b60008083601f840112611e9957611e98611957565b5b8235905067ffffffffffffffff811115611eb657611eb5611e7e565b5b602083019150836001820283011115611ed257611ed1611a03565b5b9250929050565b600080600060408486031215611ef257611ef16116b5565b5b600084013567ffffffffffffffff811115611f1057611f0f6116ba565b5b611f1c86828701611e83565b9350935050602084013567ffffffffffffffff811115611f3f57611f3e6116ba565b5b611f4b86828701611b26565b9150509250925092565b611f5e81611842565b8114611f6957600080fd5b50565b600081359050611f7b81611f55565b92915050565b60008060408385031215611f9857611f976116b5565b5b6000611fa685828601611708565b9250506020611fb785828601611f6c565b9150509250929050565b60008060208385031215611fd857611fd76116b5565b5b600083013567ffffffffffffffff811115611ff657611ff56116ba565b5b61200285828601611e83565b92509250509250929050565b60008060408385031215612025576120246116b5565b5b600061203385828601611708565b925050602061204485828601611708565b9150509250929050565b600080600080600060a0868803121561206a576120696116b5565b5b600061207888828901611708565b955050602061208988828901611708565b945050604061209a8882890161173e565b93505060606120ab8882890161173e565b925050608086013567ffffffffffffffff8111156120cc576120cb6116ba565b5b6120d888828901611b26565b9150509295509295909350565b7f455243313135353a2061646472657373207a65726f206973206e6f742061207660008201527f616c6964206f776e657200000000000000000000000000000000000000000000602082015250565b6000612141602a836118b0565b915061214c826120e5565b604082019050919050565b6000602082019050818103600083015261217081612134565b9050919050565b7f4e487b7100000000000000000000000000000000000000000000000000000000600052602260045260246000fd5b600060028204905060018216806121be57607f821691505b6020821081036121d1576121d0612177565b5b50919050565b7f455243313135353a2063616c6c6572206973206e6f7420746f6b656e206f776e60008201527f6572206f7220617070726f766564000000000000000000000000000000000000602082015250565b6000612233602e836118b0565b915061223e826121d7565b604082019050919050565b6000602082019050818103600083015261226281612226565b9050919050565b7f455243313135353a206163636f756e747320616e6420696473206c656e67746860008201527f206d69736d617463680000000000000000000000000000000000000000000000602082015250565b60006122c56029836118b0565b91506122d082612269565b604082019050919050565b600060208201905081810360008301526122f4816122b8565b9050919050565b7f4e487b7100000000000000000000000000000000000000000000000000000000600052603260045260246000fd5b7f4e487b7100000000000000000000000000000000000000000000000000000000600052601160045260246000fd5b60006123648261171d565b91507fffffffffffffffffffffffffffffffffffffffffffffffffffffffffffffffff82036123965761239561232a565b5b600182019050919050565b7f696e76616c6964207369676e6174757265000000000000000000000000000000600082015250565b60006123d76011836118b0565b91506123e2826123a1565b602082019050919050565b60006020820190508181036000830152612406816123ca565b9050919050565b7f455243313135353a2069647320616e6420616d6f756e7473206c656e6774682060008201527f6d69736d61746368000000000000000000000000000000000000000000000000602082015250565b60006124696028836118b0565b91506124748261240d565b604082019050919050565b600060208201905081810360008301526124988161245c565b9050919050565b7f455243313135353a207472616e7366657220746f20746865207a65726f20616460008201527f6472657373000000000000000000000000000000000000000000000000000000602082015250565b60006124fb6025836118b0565b91506125068261249f565b604082019050919050565b6000602082019050818103600083015261252a816124ee565b9050919050565b7f455243313135353a20696e73756666696369656e742062616c616e636520666f60008201527f72207472616e7366657200000000000000000000000000000000000000000000602082015250565b600061258d602a836118b0565b915061259882612531565b604082019050919050565b600060208201905081810360008301526125bc81612580565b9050919050565b60006125ce8261171d565b91506125d98361171d565b92508282019050808211156125f1576125f061232a565b5b92915050565b600060408201905081810360008301526126118185611dbe565b905081810360208301526126258184611dbe565b90509392505050565b7f455243313135353a206d696e7420746f20746865207a65726f2061646472657360008201527f7300000000000000000000000000000000000000000000000000000000000000602082015250565b600061268a6021836118b0565b91506126958261262e565b604082019050919050565b600060208201905081810360008301526126b98161267d565b9050919050565b60006040820190506126d56000830185611793565b6126e26020830184611793565b9392505050565b7f455243313135353a2073657474696e6720617070726f76616c2073746174757360008201527f20666f722073656c660000000000000000000000000000000000000000000000602082015250565b60006127456029836118b0565b9150612750826126e9565b604082019050919050565b6000602082019050818103600083015261277481612738565b9050919050565b612784816116df565b82525050565b600081519050919050565b600082825260208201905092915050565b60006127b18261278a565b6127bb8185612795565b93506127cb8185602086016118c1565b6127d4816118eb565b840191505092915050565b600060a0820190506127f4600083018861277b565b612801602083018761277b565b81810360408301526128138186611dbe565b905081810360608301526128278185611dbe565b9050818103608083015261283b81846127a6565b90509695505050505050565b600081519050612856816117e9565b92915050565b600060208284031215612872576128716116b5565b5b600061288084828501612847565b91505092915050565b60008160e01c9050919050565b600060033d11156128b55760046000803e6128b2600051612889565b90505b90565b600060443d10612945576128ca6116ab565b60043d036004823e80513d602482011167ffffffffffffffff821117156128f2575050612945565b808201805167ffffffffffffffff8111156129105750505050612945565b80602083010160043d03850181111561292d575050505050612945565b61293c8260200185018661198b565b82955050505050505b90565b7f455243313135353a207472616e7366657220746f206e6f6e2d4552433131353560008201527f526563656976657220696d706c656d656e746572000000000000000000000000602082015250565b60006129a46034836118b0565b91506129af82612948565b604082019050919050565b600060208201905081810360008301526129d381612997565b9050919050565b7f455243313135353a204552433131353552656365697665722072656a6563746560008201527f6420746f6b656e73000000000000000000000000000000000000000000000000602082015250565b6000612a366028836118b0565b9150612a41826129da565b604082019050919050565b60006020820190508181036000830152612a6581612a29565b9050919050565b600060a082019050612a81600083018861277b565b612a8e602083018761277b565b612a9b6040830186611793565b612aa86060830185611793565b8181036080830152612aba81846127a6565b9050969550505050505056fea26469706673582212203bb031b76f8c39d4da37ee2562fe5dce0b6b333dcb3f0bf05bff0a077d16b7af64736f6c6343000812003330786166613966396639383465343764383833646232643031376437616435383930303763366133653868747470733a2f2f697066732e696f2f697066732f62616679626569686a6a6b77647278786a6e757765766c7174716d683369656763616463333273696f34776d6f37627632676266333471733334612f7b69647d2e6a736f6e",
  "linkReferences": {},
  "deployedLinkReferences": {}
}